{
  "transactions": [
    {
      "hash": "0x6747a2becd2a1faeea9a30024779412445a216af401e5ab53c145ff710b1e09f",
      "transactionType": "CREATE",
      "contractName": "MockRouter",
      "contractAddress": "0x3b57978b411e909424e98a6a506823ec93a0cd85",
      "function": null,
      "arguments": null,
      "transaction": {
        "from": "0xfabcc4b22ffea25d01ac23c5d225d7b27cb1b6b8",
        "gas": "0x7ab35",
        "value": "0x0",
        "input": "0x6080604052348015600f57600080fd5b50601733601b565b606b565b600080546001600160a01b038381166001600160a01b0319831681178455604051919092169283917f8be0079c531659141344cd1fd0a4f28419497f9722a3daafe3b4186f6b6457e09190a35050565b6105938061007a6000396000f3fe608060405234801561001057600080fd5b50600436106100575760003560e01c806304e45aaf1461005c578063715018a6146100825780638da5cb5b1461008c578063f2fde38b146100a7578063f3fef3a3146100ba575b600080fd5b61006f61006a366004610433565b6100cd565b6040519081526020015b60405180910390f35b61008a610241565b005b6000546040516001600160a01b039091168152602001610079565b61008a6100b53660046104eb565b610255565b61008a6100c836600461050f565b6102d3565b805160808201516040516323b872dd60e01b815233600482015230602482015260448101919091526000916001600160a01b0316906323b872dd906064016020604051808303816000875af115801561012a573d6000803e3d6000fd5b505050506040513d601f19601f8201168201806040525081019061014e919061053b565b506020820151606083015160a084015160405163a9059cbb60e01b81526001600160a01b039283166004820152602481019190915291169063a9059cbb906044016020604051808303816000875af11580156101ae573d6000803e3d6000fd5b505050506040513d601f19601f820116820180604052508101906101d2919061053b565b5081602001516001600160a01b031682600001516001600160a01b03167ffa2dda1cc1b86e41239702756b13effbc1a092b5c57e3ad320fbe4f3b13fe23584608001518560a00151604051610231929190918252602082015260400190565b60405180910390a35060a0015190565b610249610351565b61025360006103ab565b565b61025d610351565b6001600160a01b0381166102c75760405162461bcd60e51b815260206004820152602660248201527f4f776e61626c653a206e6577206f776e657220697320746865207a65726f206160448201526564647265737360d01b60648201526084015b60405180910390fd5b6102d0816103ab565b50565b6102db610351565b60405163a9059cbb60e01b8152336004820152602481018290526001600160a01b0383169063a9059cbb906044016020604051808303816000875af1158015610328573d6000803e3d6000fd5b505050506040513d601f19601f8201168201806040525081019061034c919061053b565b505050565b6000546001600160a01b031633146102535760405162461bcd60e51b815260206004820181905260248201527f4f776e61626c653a2063616c6c6572206973206e6f7420746865206f776e657260448201526064016102be565b600080546001600160a01b038381166001600160a01b0319831681178455604051919092169283917f8be0079c531659141344cd1fd0a4f28419497f9722a3daafe3b4186f6b6457e09190a35050565b6001600160a01b03811681146102d057600080fd5b803561041b816103fb565b919050565b803562ffffff8116811461041b57600080fd5b600060e082840312801561044657600080fd5b6000905060405160e0810181811067ffffffffffffffff8211171561047957634e487b7160e01b83526041600452602483fd5b60405261048584610410565b815261049360208501610410565b60208201526104a460408501610420565b60408201526104b560608501610410565b60608201526080848101359082015260a08085013590820181905291506104de60c08501610410565b60c0820152949350505050565b6000602082840312156104fd57600080fd5b8135610508816103fb565b9392505050565b6000806040838503121561052257600080fd5b823561052d816103fb565b946020939093013593505050565b60006020828403121561054d57600080fd5b8151801515811461050857600080fdfea26469706673582212208ff79ccb9e477abb73b0419934b3a4e01edc3e02a6cb87c223c619ec8c7b792a64736f6c634300081b0033",
        "nonce": "0x659",
        "chainId": "0xe34"
      },
      "additionalContracts": [],
      "isFixedGasLimit": false
    },
    {
      "hash": "0xffc7e9528a3f7876e183f5ebfc877bab7dd6e4763c6402774f9f6a5034047ba4",
      "transactionType": "CALL",
      "contractName": null,
      "contractAddress": "0xe19ce0acf70dbd7ff9cb80715f84ab0fd72b57ac",
      "function": "transfer(address,uint256)",
      "arguments": [
        "0x3b57978b411E909424E98A6a506823Ec93a0CD85",
        "1000000000000000000000"
      ],
      "transaction": {
        "from": "0xfabcc4b22ffea25d01ac23c5d225d7b27cb1b6b8",
        "to": "0xe19ce0acf70dbd7ff9cb80715f84ab0fd72b57ac",
        "gas": "0x1169c",
        "value": "0x0",
        "input": "0xa9059cbb0000000000000000000000003b57978b411e909424e98a6a506823ec93a0cd8500000000000000000000000000000000000000000000003635c9adc5dea00000",
        "nonce": "0x65a",
        "chainId": "0xe34"
      },
      "additionalContracts": [],
      "isFixedGasLimit": false
    },
    {
      "hash": "0xd7f4f5f6096c51eb05e7d25b2c6fc1aa0c4c454ae756093b85ff92136aea7ad0",
      "transactionType": "CALL",
      "contractName": null,
      "contractAddress": "0x321f90864fb21cdcddd0d67fe5e4cbc812ec9e64",
      "function": "transfer(address,uint256)",
      "arguments": [
        "0x3b57978b411E909424E98A6a506823Ec93a0CD85",
        "100000000000000000"
      ],
      "transaction": {
        "from": "0xfabcc4b22ffea25d01ac23c5d225d7b27cb1b6b8",
        "to": "0x321f90864fb21cdcddd0d67fe5e4cbc812ec9e64",
        "gas": "0x125ca",
        "value": "0x0",
        "input": "0xa9059cbb0000000000000000000000003b57978b411e909424e98a6a506823ec93a0cd85000000000000000000000000000000000000000000000000016345785d8a0000",
        "nonce": "0x65b",
        "chainId": "0xe34"
      },
      "additionalContracts": [],
      "isFixedGasLimit": false
    }
  ],
  "receipts": [
    {
      "status": "0x1",
      "cumulativeGasUsed": "0x405fb",
      "logs": [
        {
          "address": "0xe19ce0acf70dbd7ff9cb80715f84ab0fd72b57ac",
          "topics": [
            "0xddf252ad1be2c89b69c2b068fc378daa952ba7f163c4a11628f55a4df523b3ef",
            "0x000000000000000000000000fabcc4b22ffea25d01ac23c5d225d7b27cb1b6b8",
            "0x0000000000000000000000003b57978b411e909424e98a6a506823ec93a0cd85"
          ],
          "data": "0x00000000000000000000000000000000000000000000003635c9adc5dea00000",
          "blockHash": "0x574ce702f9416b8f94e07ce8675b079825b8345e8673ab4a86b21de2ff89be0b",
          "blockNumber": "0x0",
          "blockTimestamp": "0x67f64276",
          "transactionHash": "0xffc7e9528a3f7876e183f5ebfc877bab7dd6e4763c6402774f9f6a5034047ba4",
          "transactionIndex": "0x2",
          "logIndex": "0x7",
          "removed": false
        }
      ],
      "logsBloom": "0x00000000020000000000000000000000000000000000000000000000000000000000000000000000000000000000000000000000000100000000000000000000000000000000000040000008000000000000200000400000000000000000000000000000000000000000000000000000001002000000000000000010000000000000000000000000000000000000000000000000000000000002000000000000000000000000000000000000000000000000000000000000000000000000000000000002000000000000000000000000000000000000000000000000000000000000000000000000000000000000000000000000000004000000000000000000",
      "type": "0x0",
      "transactionHash": "0xffc7e9528a3f7876e183f5ebfc877bab7dd6e4763c6402774f9f6a5034047ba4",
      "transactionIndex": "0x2",
      "blockHash": "0x574ce702f9416b8f94e07ce8675b079825b8345e8673ab4a86b21de2ff89be0b",
      "blockNumber": "0x0",
      "gasUsed": "0xc9b6",
      "effectiveGasPrice": "0xd5938",
      "from": "0xfabcc4b22ffea25d01ac23c5d225d7b27cb1b6b8",
      "to": "0xe19ce0acf70dbd7ff9cb80715f84ab0fd72b57ac",
      "contractAddress": null
    },
    {
      "status": "0x1",
      "cumulativeGasUsed": "0xc3a5c",
      "logs": [
        {
          "address": "0x3b57978b411e909424e98a6a506823ec93a0cd85",
          "topics": [
            "0x8be0079c531659141344cd1fd0a4f28419497f9722a3daafe3b4186f6b6457e0",
            "0x0000000000000000000000000000000000000000000000000000000000000000",
            "0x000000000000000000000000fabcc4b22ffea25d01ac23c5d225d7b27cb1b6b8"
          ],
          "data": "0x",
          "blockHash": "0x71ad1b914fc2218dcc95102fe7657e818a2b69700ad1e52e1bf2103c0835210f",
          "blockNumber": "0x0",
          "blockTimestamp": "0x67f6426a",
          "transactionHash": "0x6747a2becd2a1faeea9a30024779412445a216af401e5ab53c145ff710b1e09f",
          "transactionIndex": "0x3",
          "logIndex": "0xf",
          "removed": false
        }
      ],
      "logsBloom": "0x00000000000000000000000000000000000000000000000000800000000000000000000000000000000000000000040000000000000100000000000000000000000000000000000000000000000000000001200000000000000000000000000000000000020000000000000000000800000200000000000000000000000000400000000000000000000000000000000000000000000000000000000000000000000000000000000000000000000000000000000000000000000000000000000000000000000000000000000000000000000000000000000000000000000020000000000000000000000000000000000000000100000004000000000000000000",
      "type": "0x0",
      "transactionHash": "0x6747a2becd2a1faeea9a30024779412445a216af401e5ab53c145ff710b1e09f",
      "transactionIndex": "0x3",
      "blockHash": "0x71ad1b914fc2218dcc95102fe7657e818a2b69700ad1e52e1bf2103c0835210f",
      "blockNumber": "0x0",
      "gasUsed": "0x5e68b",
      "effectiveGasPrice": "0xd5938",
      "from": "0xfabcc4b22ffea25d01ac23c5d225d7b27cb1b6b8",
      "to": null,
      "contractAddress": "0x3b57978b411e909424e98a6a506823ec93a0cd85"
    },
    {
      "status": "0x1",
      "cumulativeGasUsed": "0x6004b",
      "logs": [
        {
          "address": "0x321f90864fb21cdcddd0d67fe5e4cbc812ec9e64",
          "topics": [
            "0xddf252ad1be2c89b69c2b068fc378daa952ba7f163c4a11628f55a4df523b3ef",
            "0x000000000000000000000000fabcc4b22ffea25d01ac23c5d225d7b27cb1b6b8",
            "0x0000000000000000000000003b57978b411e909424e98a6a506823ec93a0cd85"
          ],
          "data": "0x000000000000000000000000000000000000000000000000016345785d8a0000",
          "blockHash": "0x466f09a5a6cca9a5d0752db562666ccd1e27afd03d5bb7923666fb8322ff5c0d",
          "blockNumber": "0x0",
          "blockTimestamp": "0x67f6427c",
          "transactionHash": "0xd7f4f5f6096c51eb05e7d25b2c6fc1aa0c4c454ae756093b85ff92136aea7ad0",
          "transactionIndex": "0x3",
          "logIndex": "0xa",
          "removed": false
        }
      ],
      "logsBloom": "0x00000000000000000000000000000000000000000000000000000000000000000000000000000000000000000000000000000000000100000000000000000000000000000000000000000008000000000000200000400000000000800000000000000000000000000000000000000000001000000000000000000010000000000000000000000000000000000000000000000000000000000002800000000000000000000000000000000000000000000010000000000000000000000000000000000002000000000000000000000000000000000000000000000000000000000000000000000000000000000000000000000000000004000000000000000000",
      "type": "0x0",
      "transactionHash": "0xd7f4f5f6096c51eb05e7d25b2c6fc1aa0c4c454ae756093b85ff92136aea7ad0",
      "transactionIndex": "0x3",
      "blockHash": "0x466f09a5a6cca9a5d0752db562666ccd1e27afd03d5bb7923666fb8322ff5c0d",
      "blockNumber": "0x0",
      "gasUsed": "0xc8e2",
      "effectiveGasPrice": "0xd5938",
      "from": "0xfabcc4b22ffea25d01ac23c5d225d7b27cb1b6b8",
      "to": "0x321f90864fb21cdcddd0d67fe5e4cbc812ec9e64",
      "contractAddress": null
    }
  ],
  "libraries": [],
  "pending": [],
  "returns": {},
  "timestamp": 1744192129,
  "chain": 3636,
  "commit": null
}