{
  "transactions": [
    {
      "hash": "0xa46548cf40163ec3d47be6f7658670eee156e0adfac7e43c16e2e5c090e6e0c1",
      "transactionType": "CALL",
      "contractName": null,
      "contractAddress": "0xfb38b4aa28b98f9c010ff5a81660b2819b8acce1",
      "function": "redeem(uint256,address,address)",
      "arguments": [
        "10000000000000000000",
        "0xFaBcc4b22fFEa25D01AC23c5d225D7B27CB1B6B8",
        "0xFaBcc4b22fFEa25D01AC23c5d225D7B27CB1B6B8"
      ],
      "transaction": {
        "from": "0xfabcc4b22ffea25d01ac23c5d225d7b27cb1b6b8",
        "to": "0xfb38b4aa28b98f9c010ff5a81660b2819b8acce1",
        "gas": "0x4b4bd",
        "value": "0x0",
        "input": "0xba0876520000000000000000000000000000000000000000000000008ac7230489e80000000000000000000000000000fabcc4b22ffea25d01ac23c5d225d7b27cb1b6b8000000000000000000000000fabcc4b22ffea25d01ac23c5d225d7b27cb1b6b8",
        "nonce": "0x668",
        "chainId": "0xe34"
      },
      "additionalContracts": [],
      "isFixedGasLimit": false
    }
  ],
  "receipts": [
    {
      "status": "0x1",
      "cumulativeGasUsed": "0xa681c",
      "logs": [
        {
          "address": "0xfb38b4aa28b98f9c010ff5a81660b2819b8acce1",
          "topics": [
            "0xddf252ad1be2c89b69c2b068fc378daa952ba7f163c4a11628f55a4df523b3ef",
            "0x000000000000000000000000fabcc4b22ffea25d01ac23c5d225d7b27cb1b6b8",
            "0x0000000000000000000000000000000000000000000000000000000000000000"
          ],
          "data": "0x0000000000000000000000000000000000000000000000008ac7230489e80000",
          "blockHash": "0xdc9084b3b88264424e42e4e387dd7b44eeb164f15a4e10111f1ea0ab874a42ff",
          "blockNumber": "0x0",
          "blockTimestamp": "0x67f6477a",
          "transactionHash": "0xa46548cf40163ec3d47be6f7658670eee156e0adfac7e43c16e2e5c090e6e0c1",
          "transactionIndex": "0x4",
          "logIndex": "0x10",
          "removed": false
        },
        {
          "address": "0xe19ce0acf70dbd7ff9cb80715f84ab0fd72b57ac",
          "topics": [
            "0xddf252ad1be2c89b69c2b068fc378daa952ba7f163c4a11628f55a4df523b3ef",
            "0x00000000000000000000000056984cc217b0a72de3f641af387edd21164bbe78",
            "0x000000000000000000000000492d6c57e1a3d79f1d7d79e44dba6aa81a9f39ec"
          ],
          "data": "0x00000000000000000000000000000000000000000000000603d0652e14fcc82a",
          "blockHash": "0xdc9084b3b88264424e42e4e387dd7b44eeb164f15a4e10111f1ea0ab874a42ff",
          "blockNumber": "0x0",
          "blockTimestamp": "0x67f6477a",
          "transactionHash": "0xa46548cf40163ec3d47be6f7658670eee156e0adfac7e43c16e2e5c090e6e0c1",
          "transactionIndex": "0x4",
          "logIndex": "0x11",
          "removed": false
        },
        {
          "address": "0x56984cc217b0a72de3f641af387edd21164bbe78",
          "topics": [
            "0x8c9268469ff6265448f46f8119962e815f393b25b87bb55bda5e709a412b85d7"
          ],
          "data": "0x00000000000000000000000000000000000000000024c20338ea900f1a4333f3",
          "blockHash": "0xdc9084b3b88264424e42e4e387dd7b44eeb164f15a4e10111f1ea0ab874a42ff",
          "blockNumber": "0x0",
          "blockTimestamp": "0x67f6477a",
          "transactionHash": "0xa46548cf40163ec3d47be6f7658670eee156e0adfac7e43c16e2e5c090e6e0c1",
          "transactionIndex": "0x4",
          "logIndex": "0x12",
          "removed": false
        },
        {
          "address": "0x56984cc217b0a72de3f641af387edd21164bbe78",
          "topics": [
            "0xc48943df4095f4f20d171fd2872eafdc0eed4d9014ac3672f3bde7fd425449d5",
            "0x000000000000000000000000492d6c57e1a3d79f1d7d79e44dba6aa81a9f39ec"
          ],
          "data": "0x00000000000000000000000000000000000000000000000000ad25a8b01b70620000000000000000000000000000000000000000000000000000000000000000",
          "blockHash": "0xdc9084b3b88264424e42e4e387dd7b44eeb164f15a4e10111f1ea0ab874a42ff",
          "blockNumber": "0x0",
          "blockTimestamp": "0x67f6477a",
          "transactionHash": "0xa46548cf40163ec3d47be6f7658670eee156e0adfac7e43c16e2e5c090e6e0c1",
          "transactionIndex": "0x4",
          "logIndex": "0x13",
          "removed": false
        },
        {
          "address": "0x56984cc217b0a72de3f641af387edd21164bbe78",
          "topics": [
            "0xbce78369dccab09eec1986f4d409ab09ffbb47d65423e5148fcf98411c5111c9",
            "0x000000000000000000000000492d6c57e1a3d79f1d7d79e44dba6aa81a9f39ec"
          ],
          "data": "0x0000000000000000000000000000000000000000000000008bfb8aa5dcedc4c9",
          "blockHash": "0xdc9084b3b88264424e42e4e387dd7b44eeb164f15a4e10111f1ea0ab874a42ff",
          "blockNumber": "0x0",
          "blockTimestamp": "0x67f6477a",
          "transactionHash": "0xa46548cf40163ec3d47be6f7658670eee156e0adfac7e43c16e2e5c090e6e0c1",
          "transactionIndex": "0x4",
          "logIndex": "0x14",
          "removed": false
        },
        {
          "address": "0x56984cc217b0a72de3f641af387edd21164bbe78",
          "topics": [
            "0xf20651f7c9cd4e1c112f77cbf2a13a44f79d4165dd781c41b52052bfc888174a",
            "0x000000000000000000000000492d6c57e1a3d79f1d7d79e44dba6aa81a9f39ec"
          ],
          "data": "0x000000000000000000000000000000000000000000000000000000000000006000000000000000000000000000000000000000000000000000000000000000a000000000000000000000000000000000000000000000000000000000000000000000000000000000000000000000000000000000000000000000000000000001000000000000000000000000321f90864fb21cdcddd0d67fe5e4cbc812ec9e6400000000000000000000000000000000000000000000000000000000000000010000000000000000000000000000000000000000000000000000000000000000",
          "blockHash": "0xdc9084b3b88264424e42e4e387dd7b44eeb164f15a4e10111f1ea0ab874a42ff",
          "blockNumber": "0x0",
          "blockTimestamp": "0x67f6477a",
          "transactionHash": "0xa46548cf40163ec3d47be6f7658670eee156e0adfac7e43c16e2e5c090e6e0c1",
          "transactionIndex": "0x4",
          "logIndex": "0x15",
          "removed": false
        },
        {
          "address": "0xe19ce0acf70dbd7ff9cb80715f84ab0fd72b57ac",
          "topics": [
            "0xddf252ad1be2c89b69c2b068fc378daa952ba7f163c4a11628f55a4df523b3ef",
            "0x000000000000000000000000492d6c57e1a3d79f1d7d79e44dba6aa81a9f39ec",
            "0x000000000000000000000000fb38b4aa28b98f9c010ff5a81660b2819b8acce1"
          ],
          "data": "0x00000000000000000000000000000000000000000000000603d0652e14fcc82a",
          "blockHash": "0xdc9084b3b88264424e42e4e387dd7b44eeb164f15a4e10111f1ea0ab874a42ff",
          "blockNumber": "0x0",
          "blockTimestamp": "0x67f6477a",
          "transactionHash": "0xa46548cf40163ec3d47be6f7658670eee156e0adfac7e43c16e2e5c090e6e0c1",
          "transactionIndex": "0x4",
          "logIndex": "0x16",
          "removed": false
        },
        {
          "address": "0xe19ce0acf70dbd7ff9cb80715f84ab0fd72b57ac",
          "topics": [
            "0xddf252ad1be2c89b69c2b068fc378daa952ba7f163c4a11628f55a4df523b3ef",
            "0x000000000000000000000000fb38b4aa28b98f9c010ff5a81660b2819b8acce1",
            "0x000000000000000000000000fabcc4b22ffea25d01ac23c5d225d7b27cb1b6b8"
          ],
          "data": "0x00000000000000000000000000000000000000000000000603d0652e14fcc82a",
          "blockHash": "0xdc9084b3b88264424e42e4e387dd7b44eeb164f15a4e10111f1ea0ab874a42ff",
          "blockNumber": "0x0",
          "blockTimestamp": "0x67f6477a",
          "transactionHash": "0xa46548cf40163ec3d47be6f7658670eee156e0adfac7e43c16e2e5c090e6e0c1",
          "transactionIndex": "0x4",
          "logIndex": "0x17",
          "removed": false
        },
        {
          "address": "0xfb38b4aa28b98f9c010ff5a81660b2819b8acce1",
          "topics": [
            "0xf10dbf1172416c6a968924938bbc2aab7bd8062778b10a53684b1d02894145fd"
          ],
          "data": "0x000000000000000000000000000000000000000b18749f8175f1c68928d76a990000000000000000000000000000000000000000000000000000000000000000",
          "blockHash": "0xdc9084b3b88264424e42e4e387dd7b44eeb164f15a4e10111f1ea0ab874a42ff",
          "blockNumber": "0x0",
          "blockTimestamp": "0x67f6477a",
          "transactionHash": "0xa46548cf40163ec3d47be6f7658670eee156e0adfac7e43c16e2e5c090e6e0c1",
          "transactionIndex": "0x4",
          "logIndex": "0x18",
          "removed": false
        },
        {
          "address": "0xfb38b4aa28b98f9c010ff5a81660b2819b8acce1",
          "topics": [
            "0xfbde797d201c681b91056529119e0b02407c7bb96a4a2c75c01fc9667232c8db",
            "0x000000000000000000000000fabcc4b22ffea25d01ac23c5d225d7b27cb1b6b8",
            "0x000000000000000000000000fabcc4b22ffea25d01ac23c5d225d7b27cb1b6b8",
            "0x000000000000000000000000fabcc4b22ffea25d01ac23c5d225d7b27cb1b6b8"
          ],
          "data": "0x00000000000000000000000000000000000000000000000603d0652e14fcc82a0000000000000000000000000000000000000000000000008ac7230489e80000",
          "blockHash": "0xdc9084b3b88264424e42e4e387dd7b44eeb164f15a4e10111f1ea0ab874a42ff",
          "blockNumber": "0x0",
          "blockTimestamp": "0x67f6477a",
          "transactionHash": "0xa46548cf40163ec3d47be6f7658670eee156e0adfac7e43c16e2e5c090e6e0c1",
          "transactionIndex": "0x4",
          "logIndex": "0x19",
          "removed": false
        }
      ],
      "logsBloom": "0x00010040020000400000000000000000000020000000002000000000000200000002000000000000000000000000000000000000000100000002000000000000020000000000000040020008000010000000200000000000000000200000000000000000020000000000000000000800000002000000200004000010008004000000000000000200000004000400000000000000000020000000000048000000000000000000000000000000000100020000000000000000000010000000000000000002080000000800000000000000000000001000000000000000100020000000000000000000c00000000000008000000000000004000000000000000000",
      "type": "0x0",
      "transactionHash": "0xa46548cf40163ec3d47be6f7658670eee156e0adfac7e43c16e2e5c090e6e0c1",
      "transactionIndex": "0x4",
      "blockHash": "0xdc9084b3b88264424e42e4e387dd7b44eeb164f15a4e10111f1ea0ab874a42ff",
      "blockNumber": "0x0",
      "gasUsed": "0x36836",
      "effectiveGasPrice": "0xd59a1",
      "from": "0xfabcc4b22ffea25d01ac23c5d225d7b27cb1b6b8",
      "to": "0xfb38b4aa28b98f9c010ff5a81660b2819b8acce1",
      "contractAddress": null
    }
  ],
  "libraries": [],
  "pending": [],
  "returns": {},
  "timestamp": 1744193408,
  "chain": 3636,
  "commit": null
}