{
  "transactions": [
    {
      "hash": "0xd7c72cf0f2a52aa9b4610251c91a2a1648cab6dade821632d6df1f10afe1b33a",
      "transactionType": "CALL",
      "contractName": null,
      "contractAddress": "0x4c52b0a03e1da8ddcfbeca073962b26002403213",
      "function": "redeem(uint256,address,address)",
      "arguments": [
        "10000000000000000000",
        "0xFaBcc4b22fFEa25D01AC23c5d225D7B27CB1B6B8",
        "0xFaBcc4b22fFEa25D01AC23c5d225D7B27CB1B6B8"
      ],
      "transaction": {
        "from": "0xfabcc4b22ffea25d01ac23c5d225d7b27cb1b6b8",
        "to": "0x4c52b0a03e1da8ddcfbeca073962b26002403213",
        "gas": "0x524b7",
        "value": "0x0",
        "input": "0xba0876520000000000000000000000000000000000000000000000008ac7230489e80000000000000000000000000000fabcc4b22ffea25d01ac23c5d225d7b27cb1b6b8000000000000000000000000fabcc4b22ffea25d01ac23c5d225d7b27cb1b6b8",
        "nonce": "0x6ee",
        "chainId": "0xe34"
      },
      "additionalContracts": [],
      "isFixedGasLimit": false
    }
  ],
  "receipts": [
    {
      "status": "0x1",
      "cumulativeGasUsed": "0x13b1b3",
      "logs": [
        {
          "address": "0x4c52b0a03e1da8ddcfbeca073962b26002403213",
          "topics": [
            "0xddf252ad1be2c89b69c2b068fc378daa952ba7f163c4a11628f55a4df523b3ef",
            "0x000000000000000000000000fabcc4b22ffea25d01ac23c5d225d7b27cb1b6b8",
            "0x0000000000000000000000000000000000000000000000000000000000000000"
          ],
          "data": "0x0000000000000000000000000000000000000000000000008ac7230489e80000",
          "blockHash": "0x3eecb93af735ea65494042270b571530626ea7c150bbed42b5b3e83ba7e3945e",
          "blockNumber": "0x0",
          "blockTimestamp": "0x67fcf21e",
          "transactionHash": "0xd7c72cf0f2a52aa9b4610251c91a2a1648cab6dade821632d6df1f10afe1b33a",
          "transactionIndex": "0x4",
          "logIndex": "0x30",
          "removed": false
        },
        {
          "address": "0x56984cc217b0a72de3f641af387edd21164bbe78",
          "topics": [
            "0xc48943df4095f4f20d171fd2872eafdc0eed4d9014ac3672f3bde7fd425449d5",
            "0x00000000000000000000000032c25e90e50990a05cd5dea3b7b755abe51790b5"
          ],
          "data": "0x00000000000000000000000000000000000000000000000000aa4e368d0d31270000000000000000000000000000000000000000000000000000000000000000",
          "blockHash": "0x3eecb93af735ea65494042270b571530626ea7c150bbed42b5b3e83ba7e3945e",
          "blockNumber": "0x0",
          "blockTimestamp": "0x67fcf21e",
          "transactionHash": "0xd7c72cf0f2a52aa9b4610251c91a2a1648cab6dade821632d6df1f10afe1b33a",
          "transactionIndex": "0x4",
          "logIndex": "0x31",
          "removed": false
        },
        {
          "address": "0x56984cc217b0a72de3f641af387edd21164bbe78",
          "topics": [
            "0xbce78369dccab09eec1986f4d409ab09ffbb47d65423e5148fcf98411c5111c9",
            "0x00000000000000000000000032c25e90e50990a05cd5dea3b7b755abe51790b5"
          ],
          "data": "0x0000000000000000000000000000000000000000000000008ac7230489e80000",
          "blockHash": "0x3eecb93af735ea65494042270b571530626ea7c150bbed42b5b3e83ba7e3945e",
          "blockNumber": "0x0",
          "blockTimestamp": "0x67fcf21e",
          "transactionHash": "0xd7c72cf0f2a52aa9b4610251c91a2a1648cab6dade821632d6df1f10afe1b33a",
          "transactionIndex": "0x4",
          "logIndex": "0x32",
          "removed": false
        },
        {
          "address": "0x56984cc217b0a72de3f641af387edd21164bbe78",
          "topics": [
            "0xf20651f7c9cd4e1c112f77cbf2a13a44f79d4165dd781c41b52052bfc888174a",
            "0x00000000000000000000000032c25e90e50990a05cd5dea3b7b755abe51790b5"
          ],
          "data": "0x000000000000000000000000000000000000000000000000000000000000006000000000000000000000000000000000000000000000000000000000000000a000000000000000000000000000000000000000000000000000000000000000000000000000000000000000000000000000000000000000000000000000000001000000000000000000000000321f90864fb21cdcddd0d67fe5e4cbc812ec9e6400000000000000000000000000000000000000000000000000000000000000010000000000000000000000000000000000000000000000000000000000000000",
          "blockHash": "0x3eecb93af735ea65494042270b571530626ea7c150bbed42b5b3e83ba7e3945e",
          "blockNumber": "0x0",
          "blockTimestamp": "0x67fcf21e",
          "transactionHash": "0xd7c72cf0f2a52aa9b4610251c91a2a1648cab6dade821632d6df1f10afe1b33a",
          "transactionIndex": "0x4",
          "logIndex": "0x33",
          "removed": false
        },
        {
          "address": "0xe19ce0acf70dbd7ff9cb80715f84ab0fd72b57ac",
          "topics": [
            "0xddf252ad1be2c89b69c2b068fc378daa952ba7f163c4a11628f55a4df523b3ef",
            "0x00000000000000000000000056984cc217b0a72de3f641af387edd21164bbe78",
            "0x00000000000000000000000032c25e90e50990a05cd5dea3b7b755abe51790b5"
          ],
          "data": "0x0000000000000000000000000000000000000000000000008ac7230489e80000",
          "blockHash": "0x3eecb93af735ea65494042270b571530626ea7c150bbed42b5b3e83ba7e3945e",
          "blockNumber": "0x0",
          "blockTimestamp": "0x67fcf21e",
          "transactionHash": "0xd7c72cf0f2a52aa9b4610251c91a2a1648cab6dade821632d6df1f10afe1b33a",
          "transactionIndex": "0x4",
          "logIndex": "0x34",
          "removed": false
        },
        {
          "address": "0x56984cc217b0a72de3f641af387edd21164bbe78",
          "topics": [
            "0x8c9268469ff6265448f46f8119962e815f393b25b87bb55bda5e709a412b85d7"
          ],
          "data": "0x00000000000000000000000000000000000000000024d31351900b73e5c41cce",
          "blockHash": "0x3eecb93af735ea65494042270b571530626ea7c150bbed42b5b3e83ba7e3945e",
          "blockNumber": "0x0",
          "blockTimestamp": "0x67fcf21e",
          "transactionHash": "0xd7c72cf0f2a52aa9b4610251c91a2a1648cab6dade821632d6df1f10afe1b33a",
          "transactionIndex": "0x4",
          "logIndex": "0x35",
          "removed": false
        },
        {
          "address": "0x56984cc217b0a72de3f641af387edd21164bbe78",
          "topics": [
            "0xc48943df4095f4f20d171fd2872eafdc0eed4d9014ac3672f3bde7fd425449d5",
            "0x00000000000000000000000032c25e90e50990a05cd5dea3b7b755abe51790b5"
          ],
          "data": "0x00000000000000000000000000000000000000000000000000000000000000000000000000000000000000000000000000000000000000000000000000000000",
          "blockHash": "0x3eecb93af735ea65494042270b571530626ea7c150bbed42b5b3e83ba7e3945e",
          "blockNumber": "0x0",
          "blockTimestamp": "0x67fcf21e",
          "transactionHash": "0xd7c72cf0f2a52aa9b4610251c91a2a1648cab6dade821632d6df1f10afe1b33a",
          "transactionIndex": "0x4",
          "logIndex": "0x36",
          "removed": false
        },
        {
          "address": "0x56984cc217b0a72de3f641af387edd21164bbe78",
          "topics": [
            "0xbce78369dccab09eec1986f4d409ab09ffbb47d65423e5148fcf98411c5111c9",
            "0x00000000000000000000000032c25e90e50990a05cd5dea3b7b755abe51790b5"
          ],
          "data": "0x0000000000000000000000000000000000000000000000000000000000000000",
          "blockHash": "0x3eecb93af735ea65494042270b571530626ea7c150bbed42b5b3e83ba7e3945e",
          "blockNumber": "0x0",
          "blockTimestamp": "0x67fcf21e",
          "transactionHash": "0xd7c72cf0f2a52aa9b4610251c91a2a1648cab6dade821632d6df1f10afe1b33a",
          "transactionIndex": "0x4",
          "logIndex": "0x37",
          "removed": false
        },
        {
          "address": "0x56984cc217b0a72de3f641af387edd21164bbe78",
          "topics": [
            "0xf20651f7c9cd4e1c112f77cbf2a13a44f79d4165dd781c41b52052bfc888174a",
            "0x00000000000000000000000032c25e90e50990a05cd5dea3b7b755abe51790b5"
          ],
          "data": "0x000000000000000000000000000000000000000000000000000000000000006000000000000000000000000000000000000000000000000000000000000000a000000000000000000000000000000000000000000000000000000000000000000000000000000000000000000000000000000000000000000000000000000001000000000000000000000000321f90864fb21cdcddd0d67fe5e4cbc812ec9e6400000000000000000000000000000000000000000000000000000000000000010000000000000000000000000000000000000000000000000000000000000000",
          "blockHash": "0x3eecb93af735ea65494042270b571530626ea7c150bbed42b5b3e83ba7e3945e",
          "blockNumber": "0x0",
          "blockTimestamp": "0x67fcf21e",
          "transactionHash": "0xd7c72cf0f2a52aa9b4610251c91a2a1648cab6dade821632d6df1f10afe1b33a",
          "transactionIndex": "0x4",
          "logIndex": "0x38",
          "removed": false
        },
        {
          "address": "0xe19ce0acf70dbd7ff9cb80715f84ab0fd72b57ac",
          "topics": [
            "0xddf252ad1be2c89b69c2b068fc378daa952ba7f163c4a11628f55a4df523b3ef",
            "0x00000000000000000000000032c25e90e50990a05cd5dea3b7b755abe51790b5",
            "0x0000000000000000000000004c52b0a03e1da8ddcfbeca073962b26002403213"
          ],
          "data": "0x0000000000000000000000000000000000000000000000008ac7230489e80000",
          "blockHash": "0x3eecb93af735ea65494042270b571530626ea7c150bbed42b5b3e83ba7e3945e",
          "blockNumber": "0x0",
          "blockTimestamp": "0x67fcf21e",
          "transactionHash": "0xd7c72cf0f2a52aa9b4610251c91a2a1648cab6dade821632d6df1f10afe1b33a",
          "transactionIndex": "0x4",
          "logIndex": "0x39",
          "removed": false
        },
        {
          "address": "0xe19ce0acf70dbd7ff9cb80715f84ab0fd72b57ac",
          "topics": [
            "0xddf252ad1be2c89b69c2b068fc378daa952ba7f163c4a11628f55a4df523b3ef",
            "0x0000000000000000000000004c52b0a03e1da8ddcfbeca073962b26002403213",
            "0x000000000000000000000000fabcc4b22ffea25d01ac23c5d225d7b27cb1b6b8"
          ],
          "data": "0x0000000000000000000000000000000000000000000000008ac7230489e80000",
          "blockHash": "0x3eecb93af735ea65494042270b571530626ea7c150bbed42b5b3e83ba7e3945e",
          "blockNumber": "0x0",
          "blockTimestamp": "0x67fcf21e",
          "transactionHash": "0xd7c72cf0f2a52aa9b4610251c91a2a1648cab6dade821632d6df1f10afe1b33a",
          "transactionIndex": "0x4",
          "logIndex": "0x3a",
          "removed": false
        },
        {
          "address": "0x4c52b0a03e1da8ddcfbeca073962b26002403213",
          "topics": [
            "0xf10dbf1172416c6a968924938bbc2aab7bd8062778b10a53684b1d02894145fd"
          ],
          "data": "0x00000000000000000000000000000000000000010000000000000000000000000000000000000000000000000000000000000000000000000000000000000000",
          "blockHash": "0x3eecb93af735ea65494042270b571530626ea7c150bbed42b5b3e83ba7e3945e",
          "blockNumber": "0x0",
          "blockTimestamp": "0x67fcf21e",
          "transactionHash": "0xd7c72cf0f2a52aa9b4610251c91a2a1648cab6dade821632d6df1f10afe1b33a",
          "transactionIndex": "0x4",
          "logIndex": "0x3b",
          "removed": false
        },
        {
          "address": "0x4c52b0a03e1da8ddcfbeca073962b26002403213",
          "topics": [
            "0xfbde797d201c681b91056529119e0b02407c7bb96a4a2c75c01fc9667232c8db",
            "0x000000000000000000000000fabcc4b22ffea25d01ac23c5d225d7b27cb1b6b8",
            "0x000000000000000000000000fabcc4b22ffea25d01ac23c5d225d7b27cb1b6b8",
            "0x000000000000000000000000fabcc4b22ffea25d01ac23c5d225d7b27cb1b6b8"
          ],
          "data": "0x0000000000000000000000000000000000000000000000008ac7230489e800000000000000000000000000000000000000000000000000008ac7230489e80000",
          "blockHash": "0x3eecb93af735ea65494042270b571530626ea7c150bbed42b5b3e83ba7e3945e",
          "blockNumber": "0x0",
          "blockTimestamp": "0x67fcf21e",
          "transactionHash": "0xd7c72cf0f2a52aa9b4610251c91a2a1648cab6dade821632d6df1f10afe1b33a",
          "transactionIndex": "0x4",
          "logIndex": "0x3c",
          "removed": false
        }
      ],
      "logsBloom": "0x00010000020000400000000000000000000000000000002000000000000280000002000000000000000000000002000000000000000100000002000000000000000000000000000040020008020010000000200000000000000000200000000000000020020000000000000000000800000002000000200004000010008004000000000080008200000004000400000001000000000020000000000040000000000000000000000000000000000100020000000000000000000110000400000000000002000000000800000000000000000000001000000000000000000020000000000000000000000000000000000000000000000004000000000000000000",
      "type": "0x0",
      "transactionHash": "0xd7c72cf0f2a52aa9b4610251c91a2a1648cab6dade821632d6df1f10afe1b33a",
      "transactionIndex": "0x4",
      "blockHash": "0x3eecb93af735ea65494042270b571530626ea7c150bbed42b5b3e83ba7e3945e",
      "blockNumber": "0x0",
      "gasUsed": "0x3b948",
      "effectiveGasPrice": "0xd5744",
      "from": "0xfabcc4b22ffea25d01ac23c5d225d7b27cb1b6b8",
      "to": "0x4c52b0a03e1da8ddcfbeca073962b26002403213",
      "contractAddress": null
    }
  ],
  "libraries": [],
  "pending": [],
  "returns": {},
  "timestamp": 1744630307,
  "chain": 3636,
  "commit": null
}