{
  "transactions": [
    {
      "hash": "0x0d4910f4ddaba49d97e12c93d31c3864823754fd9a89a70aff2f90b2063a5795",
      "transactionType": "CALL",
      "contractName": null,
      "contractAddress": "0x32c25e90e50990a05cd5dea3b7b755abe51790b5",
      "function": "addCollateralAsset(address,address)",
      "arguments": [
        "0x321f90864fb21cdcddD0D67FE5e4Cbc812eC9e64",
        "0x717431E3E7951196BCE7B5b0d0593Dad1b6D5e2d"
      ],
      "transaction": {
        "from": "0xfabcc4b22ffea25d01ac23c5d225d7b27cb1b6b8",
        "to": "0x32c25e90e50990a05cd5dea3b7b755abe51790b5",
        "gas": "0x31de2",
        "value": "0x0",
        "input": "0xadfbebd5000000000000000000000000321f90864fb21cdcddd0d67fe5e4cbc812ec9e64000000000000000000000000717431e3e7951196bce7b5b0d0593dad1b6d5e2d",
        "nonce": "0x6eb",
        "chainId": "0xe34"
      },
      "additionalContracts": [],
      "isFixedGasLimit": false
    },
    {
      "hash": "0x0b0a8133277f561395eb94ffb9174413fb5bec927ac5998ec0ef4e75c1937af2",
      "transactionType": "CALL",
      "contractName": null,
      "contractAddress": "0xe19ce0acf70dbd7ff9cb80715f84ab0fd72b57ac",
      "function": "approve(address,uint256)",
      "arguments": [
        "0x4C52b0A03E1Da8DDCfbECa073962B26002403213",
        "10000000000000000000000"
      ],
      "transaction": {
        "from": "0xfabcc4b22ffea25d01ac23c5d225d7b27cb1b6b8",
        "to": "0xe19ce0acf70dbd7ff9cb80715f84ab0fd72b57ac",
        "gas": "0x108ad",
        "value": "0x0",
        "input": "0x095ea7b30000000000000000000000004c52b0a03e1da8ddcfbeca073962b2600240321300000000000000000000000000000000000000000000021e19e0c9bab2400000",
        "nonce": "0x6ec",
        "chainId": "0xe34"
      },
      "additionalContracts": [],
      "isFixedGasLimit": false
    },
    {
      "hash": "0xa300f0d03f2c869cc4401704dce3c4531b037e7de785379d7730fcb3851f4327",
      "transactionType": "CALL",
      "contractName": null,
      "contractAddress": "0x4c52b0a03e1da8ddcfbeca073962b26002403213",
      "function": "deposit(uint256,address)",
      "arguments": [
        "10000000000000000000",
        "0xFaBcc4b22fFEa25D01AC23c5d225D7B27CB1B6B8"
      ],
      "transaction": {
        "from": "0xfabcc4b22ffea25d01ac23c5d225d7b27cb1b6b8",
        "to": "0x4c52b0a03e1da8ddcfbeca073962b26002403213",
        "gas": "0x6911b",
        "value": "0x0",
        "input": "0x6e553f650000000000000000000000000000000000000000000000008ac7230489e80000000000000000000000000000fabcc4b22ffea25d01ac23c5d225d7b27cb1b6b8",
        "nonce": "0x6ed",
        "chainId": "0xe34"
      },
      "additionalContracts": [],
      "isFixedGasLimit": false
    }
  ],
  "receipts": [
    {
      "status": "0x1",
      "cumulativeGasUsed": "0x82a4f",
      "logs": [
        {
          "address": "0xe19ce0acf70dbd7ff9cb80715f84ab0fd72b57ac",
          "topics": [
            "0x8c5be1e5ebec7d5bd14f71427d1e84f3dd0314c0f7b2291e5b200ac8c7c3b925",
            "0x000000000000000000000000fabcc4b22ffea25d01ac23c5d225d7b27cb1b6b8",
            "0x0000000000000000000000004c52b0a03e1da8ddcfbeca073962b26002403213"
          ],
          "data": "0x00000000000000000000000000000000000000000000021e19e0c9bab2400000",
          "blockHash": "0x6ad18670b2e0b3d2a33d2f003e8fe1d5a5c3e433a3bd4de800534fca4c27a61c",
          "blockNumber": "0x0",
          "blockTimestamp": "0x67fceed4",
          "transactionHash": "0x0b0a8133277f561395eb94ffb9174413fb5bec927ac5998ec0ef4e75c1937af2",
          "transactionIndex": "0x4",
          "logIndex": "0x11",
          "removed": false
        }
      ],
      "logsBloom": "0x00000000020000000000000000000000000000000000000000000000000000000000000000000000000000000002000000000000000100000000000000200000000000000000000040000000000000000000200000000000000000000000000000000020000000000000000000000000000002000000000000000000000000000000000080000000000000000000000000000000000000000000000000000000020000000000000000000000000000000000000000000000000000000000000000000000000000000000000000000000000000000000000000000000000000000010000000000000000000000000000000000000000004000000000000000000",
      "type": "0x0",
      "transactionHash": "0x0b0a8133277f561395eb94ffb9174413fb5bec927ac5998ec0ef4e75c1937af2",
      "transactionIndex": "0x4",
      "blockHash": "0x6ad18670b2e0b3d2a33d2f003e8fe1d5a5c3e433a3bd4de800534fca4c27a61c",
      "blockNumber": "0x0",
      "gasUsed": "0xb4fa",
      "effectiveGasPrice": "0xd56f7",
      "from": "0xfabcc4b22ffea25d01ac23c5d225d7b27cb1b6b8",
      "to": "0xe19ce0acf70dbd7ff9cb80715f84ab0fd72b57ac",
      "contractAddress": null
    },
    {
      "status": "0x1",
      "cumulativeGasUsed": "0xb4090",
      "logs": [
        {
          "address": "0xe19ce0acf70dbd7ff9cb80715f84ab0fd72b57ac",
          "topics": [
            "0x8c5be1e5ebec7d5bd14f71427d1e84f3dd0314c0f7b2291e5b200ac8c7c3b925",
            "0x000000000000000000000000fabcc4b22ffea25d01ac23c5d225d7b27cb1b6b8",
            "0x0000000000000000000000004c52b0a03e1da8ddcfbeca073962b26002403213"
          ],
          "data": "0x00000000000000000000000000000000000000000000021d8f19a6b628580000",
          "blockHash": "0xd526b02017553757266f381830cc48a83d181665977a17db4f2e21497f070678",
          "blockNumber": "0x0",
          "blockTimestamp": "0x67fceee1",
          "transactionHash": "0xa300f0d03f2c869cc4401704dce3c4531b037e7de785379d7730fcb3851f4327",
          "transactionIndex": "0x5",
          "logIndex": "0xe",
          "removed": false
        },
        {
          "address": "0xe19ce0acf70dbd7ff9cb80715f84ab0fd72b57ac",
          "topics": [
            "0xddf252ad1be2c89b69c2b068fc378daa952ba7f163c4a11628f55a4df523b3ef",
            "0x000000000000000000000000fabcc4b22ffea25d01ac23c5d225d7b27cb1b6b8",
            "0x0000000000000000000000004c52b0a03e1da8ddcfbeca073962b26002403213"
          ],
          "data": "0x0000000000000000000000000000000000000000000000008ac7230489e80000",
          "blockHash": "0xd526b02017553757266f381830cc48a83d181665977a17db4f2e21497f070678",
          "blockNumber": "0x0",
          "blockTimestamp": "0x67fceee1",
          "transactionHash": "0xa300f0d03f2c869cc4401704dce3c4531b037e7de785379d7730fcb3851f4327",
          "transactionIndex": "0x5",
          "logIndex": "0xf",
          "removed": false
        },
        {
          "address": "0xe19ce0acf70dbd7ff9cb80715f84ab0fd72b57ac",
          "topics": [
            "0xddf252ad1be2c89b69c2b068fc378daa952ba7f163c4a11628f55a4df523b3ef",
            "0x0000000000000000000000004c52b0a03e1da8ddcfbeca073962b26002403213",
            "0x00000000000000000000000032c25e90e50990a05cd5dea3b7b755abe51790b5"
          ],
          "data": "0x0000000000000000000000000000000000000000000000008ac7230489e80000",
          "blockHash": "0xd526b02017553757266f381830cc48a83d181665977a17db4f2e21497f070678",
          "blockNumber": "0x0",
          "blockTimestamp": "0x67fceee1",
          "transactionHash": "0xa300f0d03f2c869cc4401704dce3c4531b037e7de785379d7730fcb3851f4327",
          "transactionIndex": "0x5",
          "logIndex": "0x10",
          "removed": false
        },
        {
          "address": "0xe19ce0acf70dbd7ff9cb80715f84ab0fd72b57ac",
          "topics": [
            "0xddf252ad1be2c89b69c2b068fc378daa952ba7f163c4a11628f55a4df523b3ef",
            "0x00000000000000000000000032c25e90e50990a05cd5dea3b7b755abe51790b5",
            "0x00000000000000000000000056984cc217b0a72de3f641af387edd21164bbe78"
          ],
          "data": "0x0000000000000000000000000000000000000000000000008ac7230489e80000",
          "blockHash": "0xd526b02017553757266f381830cc48a83d181665977a17db4f2e21497f070678",
          "blockNumber": "0x0",
          "blockTimestamp": "0x67fceee1",
          "transactionHash": "0xa300f0d03f2c869cc4401704dce3c4531b037e7de785379d7730fcb3851f4327",
          "transactionIndex": "0x5",
          "logIndex": "0x11",
          "removed": false
        },
        {
          "address": "0x56984cc217b0a72de3f641af387edd21164bbe78",
          "topics": [
            "0x8c9268469ff6265448f46f8119962e815f393b25b87bb55bda5e709a412b85d7"
          ],
          "data": "0x00000000000000000000000000000000000000000024d361dbf2cdd238b1c0e4",
          "blockHash": "0xd526b02017553757266f381830cc48a83d181665977a17db4f2e21497f070678",
          "blockNumber": "0x0",
          "blockTimestamp": "0x67fceee1",
          "transactionHash": "0xa300f0d03f2c869cc4401704dce3c4531b037e7de785379d7730fcb3851f4327",
          "transactionIndex": "0x5",
          "logIndex": "0x12",
          "removed": false
        },
        {
          "address": "0x56984cc217b0a72de3f641af387edd21164bbe78",
          "topics": [
            "0xc48943df4095f4f20d171fd2872eafdc0eed4d9014ac3672f3bde7fd425449d5",
            "0x00000000000000000000000032c25e90e50990a05cd5dea3b7b755abe51790b5"
          ],
          "data": "0x00000000000000000000000000000000000000000000000000aa4e368d0d31270000000000000000000000000000000000000000000000000000000000000000",
          "blockHash": "0xd526b02017553757266f381830cc48a83d181665977a17db4f2e21497f070678",
          "blockNumber": "0x0",
          "blockTimestamp": "0x67fceee1",
          "transactionHash": "0xa300f0d03f2c869cc4401704dce3c4531b037e7de785379d7730fcb3851f4327",
          "transactionIndex": "0x5",
          "logIndex": "0x13",
          "removed": false
        },
        {
          "address": "0x56984cc217b0a72de3f641af387edd21164bbe78",
          "topics": [
            "0xbce78369dccab09eec1986f4d409ab09ffbb47d65423e5148fcf98411c5111c9",
            "0x00000000000000000000000032c25e90e50990a05cd5dea3b7b755abe51790b5"
          ],
          "data": "0x0000000000000000000000000000000000000000000000008ac7230489e80000",
          "blockHash": "0xd526b02017553757266f381830cc48a83d181665977a17db4f2e21497f070678",
          "blockNumber": "0x0",
          "blockTimestamp": "0x67fceee1",
          "transactionHash": "0xa300f0d03f2c869cc4401704dce3c4531b037e7de785379d7730fcb3851f4327",
          "transactionIndex": "0x5",
          "logIndex": "0x14",
          "removed": false
        },
        {
          "address": "0x56984cc217b0a72de3f641af387edd21164bbe78",
          "topics": [
            "0xf20651f7c9cd4e1c112f77cbf2a13a44f79d4165dd781c41b52052bfc888174a",
            "0x00000000000000000000000032c25e90e50990a05cd5dea3b7b755abe51790b5"
          ],
          "data": "0x00000000000000000000000000000000000000000000000000000000000000600000000000000000000000000000000000000000000000000000000000000080000000000000000000000000000000000000000000000000000000000000000000000000000000000000000000000000000000000000000000000000000000000000000000000000000000000000000000000000000000000000000000000000",
          "blockHash": "0xd526b02017553757266f381830cc48a83d181665977a17db4f2e21497f070678",
          "blockNumber": "0x0",
          "blockTimestamp": "0x67fceee1",
          "transactionHash": "0xa300f0d03f2c869cc4401704dce3c4531b037e7de785379d7730fcb3851f4327",
          "transactionIndex": "0x5",
          "logIndex": "0x15",
          "removed": false
        },
        {
          "address": "0x4c52b0a03e1da8ddcfbeca073962b26002403213",
          "topics": [
            "0xddf252ad1be2c89b69c2b068fc378daa952ba7f163c4a11628f55a4df523b3ef",
            "0x0000000000000000000000000000000000000000000000000000000000000000",
            "0x000000000000000000000000fabcc4b22ffea25d01ac23c5d225d7b27cb1b6b8"
          ],
          "data": "0x0000000000000000000000000000000000000000000000008ac7230489e80000",
          "blockHash": "0xd526b02017553757266f381830cc48a83d181665977a17db4f2e21497f070678",
          "blockNumber": "0x0",
          "blockTimestamp": "0x67fceee1",
          "transactionHash": "0xa300f0d03f2c869cc4401704dce3c4531b037e7de785379d7730fcb3851f4327",
          "transactionIndex": "0x5",
          "logIndex": "0x16",
          "removed": false
        },
        {
          "address": "0x4c52b0a03e1da8ddcfbeca073962b26002403213",
          "topics": [
            "0xf10dbf1172416c6a968924938bbc2aab7bd8062778b10a53684b1d02894145fd"
          ],
          "data": "0x00000000000000000000000000000000000000010000000000000000000000000000000000000000000000000000000000000000000000000000000000000000",
          "blockHash": "0xd526b02017553757266f381830cc48a83d181665977a17db4f2e21497f070678",
          "blockNumber": "0x0",
          "blockTimestamp": "0x67fceee1",
          "transactionHash": "0xa300f0d03f2c869cc4401704dce3c4531b037e7de785379d7730fcb3851f4327",
          "transactionIndex": "0x5",
          "logIndex": "0x17",
          "removed": false
        },
        {
          "address": "0x4c52b0a03e1da8ddcfbeca073962b26002403213",
          "topics": [
            "0xdcbc1c05240f31ff3ad067ef1ee35ce4997762752e3a095284754544f4c709d7",
            "0x000000000000000000000000fabcc4b22ffea25d01ac23c5d225d7b27cb1b6b8",
            "0x000000000000000000000000fabcc4b22ffea25d01ac23c5d225d7b27cb1b6b8"
          ],
          "data": "0x0000000000000000000000000000000000000000000000008ac7230489e800000000000000000000000000000000000000000000000000008ac7230489e80000",
          "blockHash": "0xd526b02017553757266f381830cc48a83d181665977a17db4f2e21497f070678",
          "blockNumber": "0x0",
          "blockTimestamp": "0x67fceee1",
          "transactionHash": "0xa300f0d03f2c869cc4401704dce3c4531b037e7de785379d7730fcb3851f4327",
          "transactionIndex": "0x5",
          "logIndex": "0x18",
          "removed": false
        }
      ],
      "logsBloom": "0x00010000020000000000000000000000000000000000002000000000000280000002000000000000000000000002000000000000000100000002000000200000000000400000000040020008020010000000200000000000000000200000000000000020020000000000000000000800000002000004200004000010008004000000000080008200000004000400000001000000000020000000000040000000020000000000000000000000000100000000000000000000000110000400000000000002000000000800000000000000000000001008000000000000000020000010000000000000000000000000000000000000000004000000000000000000",
      "type": "0x0",
      "transactionHash": "0xa300f0d03f2c869cc4401704dce3c4531b037e7de785379d7730fcb3851f4327",
      "transactionIndex": "0x5",
      "blockHash": "0xd526b02017553757266f381830cc48a83d181665977a17db4f2e21497f070678",
      "blockNumber": "0x0",
      "gasUsed": "0x4c118",
      "effectiveGasPrice": "0xd56f7",
      "from": "0xfabcc4b22ffea25d01ac23c5d225d7b27cb1b6b8",
      "to": "0x4c52b0a03e1da8ddcfbeca073962b26002403213",
      "contractAddress": null
    },
    {
      "status": "0x1",
      "cumulativeGasUsed": "0x1392c5",
      "logs": [
        {
          "address": "0x321f90864fb21cdcddd0d67fe5e4cbc812ec9e64",
          "topics": [
            "0x8c5be1e5ebec7d5bd14f71427d1e84f3dd0314c0f7b2291e5b200ac8c7c3b925",
            "0x00000000000000000000000032c25e90e50990a05cd5dea3b7b755abe51790b5",
            "0x00000000000000000000000056984cc217b0a72de3f641af387edd21164bbe78"
          ],
          "data": "0xffffffffffffffffffffffffffffffffffffffffffffffffffffffffffffffff",
          "blockHash": "0x1e205ccd865e90e35e2e8141a2a6c7bcea732b73eadffd2dbb77193a5b513047",
          "blockNumber": "0x0",
          "blockTimestamp": "0x67fceece",
          "transactionHash": "0x0d4910f4ddaba49d97e12c93d31c3864823754fd9a89a70aff2f90b2063a5795",
          "transactionIndex": "0x9",
          "logIndex": "0x29",
          "removed": false
        },
        {
          "address": "0x321f90864fb21cdcddd0d67fe5e4cbc812ec9e64",
          "topics": [
            "0x8c5be1e5ebec7d5bd14f71427d1e84f3dd0314c0f7b2291e5b200ac8c7c3b925",
            "0x00000000000000000000000032c25e90e50990a05cd5dea3b7b755abe51790b5",
            "0x0000000000000000000000003b57978b411e909424e98a6a506823ec93a0cd85"
          ],
          "data": "0xffffffffffffffffffffffffffffffffffffffffffffffffffffffffffffffff",
          "blockHash": "0x1e205ccd865e90e35e2e8141a2a6c7bcea732b73eadffd2dbb77193a5b513047",
          "blockNumber": "0x0",
          "blockTimestamp": "0x67fceece",
          "transactionHash": "0x0d4910f4ddaba49d97e12c93d31c3864823754fd9a89a70aff2f90b2063a5795",
          "transactionIndex": "0x9",
          "logIndex": "0x2a",
          "removed": false
        }
      ],
      "logsBloom": "0x00000000000000000000000000000000000000000000002000000000000000000002000000000000000000000000000000000000000000000000000000200000000000000000000000000000020000000000000000400000000000800000000000000000000000000000000000000000001000000000000000000000000000000000000000008200000000000000000000000000000000000002800000000000020000000000000000000000000000000010000000000000000100000000000000000000000000000000000000000000000000000000000000000000000000000010000000000000000000000000000000000000000000000000000000000000",
      "type": "0x0",
      "transactionHash": "0x0d4910f4ddaba49d97e12c93d31c3864823754fd9a89a70aff2f90b2063a5795",
      "transactionIndex": "0x9",
      "blockHash": "0x1e205ccd865e90e35e2e8141a2a6c7bcea732b73eadffd2dbb77193a5b513047",
      "blockNumber": "0x0",
      "gasUsed": "0x241a8",
      "effectiveGasPrice": "0xd56f7",
      "from": "0xfabcc4b22ffea25d01ac23c5d225d7b27cb1b6b8",
      "to": "0x32c25e90e50990a05cd5dea3b7b755abe51790b5",
      "contractAddress": null
    }
  ],
  "libraries": [],
  "pending": [],
  "returns": {},
  "timestamp": 1744629476,
  "chain": 3636,
  "commit": null
}