{
  "transactions": [
    {
      "hash": "0x56e064b2c4cb52bc45ea33a171ff9878c87fa4ed71716a700d205855147f1ce7",
      "transactionType": "CALL",
      "contractName": null,
      "contractAddress": "0xe19ce0acf70dbd7ff9cb80715f84ab0fd72b57ac",
      "function": "approve(address,uint256)",
      "arguments": [
        "0xcCF4963De8F039F27E3C1cF3C3add60eD1323771",
        "10000000000000000000000"
      ],
      "transaction": {
        "from": "0xfabcc4b22ffea25d01ac23c5d225d7b27cb1b6b8",
        "to": "0xe19ce0acf70dbd7ff9cb80715f84ab0fd72b57ac",
        "gas": "0x108ad",
        "value": "0x0",
        "input": "0x095ea7b3000000000000000000000000ccf4963de8f039f27e3c1cf3c3add60ed132377100000000000000000000000000000000000000000000021e19e0c9bab2400000",
        "nonce": "0x60c",
        "chainId": "0xe34"
      },
      "additionalContracts": [],
      "isFixedGasLimit": false
    },
    {
      "hash": "0x0654a9ca8749602a7f3d17d0d27e605ac0fe19c2476289ae67d04b8674ab75dc",
      "transactionType": "CALL",
      "contractName": null,
      "contractAddress": "0xccf4963de8f039f27e3c1cf3c3add60ed1323771",
      "function": "deposit(uint256,address)",
      "arguments": [
        "10000000000000000000",
        "0xFaBcc4b22fFEa25D01AC23c5d225D7B27CB1B6B8"
      ],
      "transaction": {
        "from": "0xfabcc4b22ffea25d01ac23c5d225d7b27cb1b6b8",
        "to": "0xccf4963de8f039f27e3c1cf3c3add60ed1323771",
        "gas": "0x68367",
        "value": "0x0",
        "input": "0x6e553f650000000000000000000000000000000000000000000000008ac7230489e80000000000000000000000000000fabcc4b22ffea25d01ac23c5d225d7b27cb1b6b8",
        "nonce": "0x60d",
        "chainId": "0xe34"
      },
      "additionalContracts": [],
      "isFixedGasLimit": false
    },
    {
      "hash": "0x5cba9de06805dcd6fbcd0cb4c5745e9293a8ddb7225d711e13e271ada6cc0c5e",
      "transactionType": "CALL",
      "contractName": null,
      "contractAddress": "0xc928afef2c13fd5cf4284f475eb6794370d20148",
      "function": "addCollateralAsset(address,address)",
      "arguments": [
        "0x321f90864fb21cdcddD0D67FE5e4Cbc812eC9e64",
        "0x717431E3E7951196BCE7B5b0d0593Dad1b6D5e2d"
      ],
      "transaction": {
        "from": "0xfabcc4b22ffea25d01ac23c5d225d7b27cb1b6b8",
        "to": "0xc928afef2c13fd5cf4284f475eb6794370d20148",
        "gas": "0x31e00",
        "value": "0x0",
        "input": "0xadfbebd5000000000000000000000000321f90864fb21cdcddd0d67fe5e4cbc812ec9e64000000000000000000000000717431e3e7951196bce7b5b0d0593dad1b6d5e2d",
        "nonce": "0x60e",
        "chainId": "0xe34"
      },
      "additionalContracts": [],
      "isFixedGasLimit": false
    }
  ],
  "receipts": [
    {
      "status": "0x1",
      "cumulativeGasUsed": "0xfdca9",
      "logs": [
        {
          "address": "0xe19ce0acf70dbd7ff9cb80715f84ab0fd72b57ac",
          "topics": [
            "0x8c5be1e5ebec7d5bd14f71427d1e84f3dd0314c0f7b2291e5b200ac8c7c3b925",
            "0x000000000000000000000000fabcc4b22ffea25d01ac23c5d225d7b27cb1b6b8",
            "0x000000000000000000000000ccf4963de8f039f27e3c1cf3c3add60ed1323771"
          ],
          "data": "0x00000000000000000000000000000000000000000000021d8f19a6b628580000",
          "blockHash": "0x079e04a919e170b9ca16f15ae5cd7d1e962d4c85fb008c5a9e5e756304a68550",
          "blockNumber": "0x0",
          "blockTimestamp": "0x67f4f624",
          "transactionHash": "0x0654a9ca8749602a7f3d17d0d27e605ac0fe19c2476289ae67d04b8674ab75dc",
          "transactionIndex": "0x8",
          "logIndex": "0x16",
          "removed": false
        },
        {
          "address": "0xe19ce0acf70dbd7ff9cb80715f84ab0fd72b57ac",
          "topics": [
            "0xddf252ad1be2c89b69c2b068fc378daa952ba7f163c4a11628f55a4df523b3ef",
            "0x000000000000000000000000fabcc4b22ffea25d01ac23c5d225d7b27cb1b6b8",
            "0x000000000000000000000000ccf4963de8f039f27e3c1cf3c3add60ed1323771"
          ],
          "data": "0x0000000000000000000000000000000000000000000000008ac7230489e80000",
          "blockHash": "0x079e04a919e170b9ca16f15ae5cd7d1e962d4c85fb008c5a9e5e756304a68550",
          "blockNumber": "0x0",
          "blockTimestamp": "0x67f4f624",
          "transactionHash": "0x0654a9ca8749602a7f3d17d0d27e605ac0fe19c2476289ae67d04b8674ab75dc",
          "transactionIndex": "0x8",
          "logIndex": "0x17",
          "removed": false
        },
        {
          "address": "0xe19ce0acf70dbd7ff9cb80715f84ab0fd72b57ac",
          "topics": [
            "0xddf252ad1be2c89b69c2b068fc378daa952ba7f163c4a11628f55a4df523b3ef",
            "0x000000000000000000000000ccf4963de8f039f27e3c1cf3c3add60ed1323771",
            "0x000000000000000000000000c928afef2c13fd5cf4284f475eb6794370d20148"
          ],
          "data": "0x0000000000000000000000000000000000000000000000008ac7230489e80000",
          "blockHash": "0x079e04a919e170b9ca16f15ae5cd7d1e962d4c85fb008c5a9e5e756304a68550",
          "blockNumber": "0x0",
          "blockTimestamp": "0x67f4f624",
          "transactionHash": "0x0654a9ca8749602a7f3d17d0d27e605ac0fe19c2476289ae67d04b8674ab75dc",
          "transactionIndex": "0x8",
          "logIndex": "0x18",
          "removed": false
        },
        {
          "address": "0xe19ce0acf70dbd7ff9cb80715f84ab0fd72b57ac",
          "topics": [
            "0xddf252ad1be2c89b69c2b068fc378daa952ba7f163c4a11628f55a4df523b3ef",
            "0x000000000000000000000000c928afef2c13fd5cf4284f475eb6794370d20148",
            "0x00000000000000000000000056984cc217b0a72de3f641af387edd21164bbe78"
          ],
          "data": "0x0000000000000000000000000000000000000000000000008ac7230489e80000",
          "blockHash": "0x079e04a919e170b9ca16f15ae5cd7d1e962d4c85fb008c5a9e5e756304a68550",
          "blockNumber": "0x0",
          "blockTimestamp": "0x67f4f624",
          "transactionHash": "0x0654a9ca8749602a7f3d17d0d27e605ac0fe19c2476289ae67d04b8674ab75dc",
          "transactionIndex": "0x8",
          "logIndex": "0x19",
          "removed": false
        },
        {
          "address": "0x56984cc217b0a72de3f641af387edd21164bbe78",
          "topics": [
            "0x8c9268469ff6265448f46f8119962e815f393b25b87bb55bda5e709a412b85d7"
          ],
          "data": "0x000000000000000000000000000000000000000000278bf4eecd3a9524c567a5",
          "blockHash": "0x079e04a919e170b9ca16f15ae5cd7d1e962d4c85fb008c5a9e5e756304a68550",
          "blockNumber": "0x0",
          "blockTimestamp": "0x67f4f624",
          "transactionHash": "0x0654a9ca8749602a7f3d17d0d27e605ac0fe19c2476289ae67d04b8674ab75dc",
          "transactionIndex": "0x8",
          "logIndex": "0x1a",
          "removed": false
        },
        {
          "address": "0x56984cc217b0a72de3f641af387edd21164bbe78",
          "topics": [
            "0xc48943df4095f4f20d171fd2872eafdc0eed4d9014ac3672f3bde7fd425449d5",
            "0x000000000000000000000000c928afef2c13fd5cf4284f475eb6794370d20148"
          ],
          "data": "0x00000000000000000000000000000000000000000000000000bceb3454bf6d9e0000000000000000000000000000000000000000000000000000000000000000",
          "blockHash": "0x079e04a919e170b9ca16f15ae5cd7d1e962d4c85fb008c5a9e5e756304a68550",
          "blockNumber": "0x0",
          "blockTimestamp": "0x67f4f624",
          "transactionHash": "0x0654a9ca8749602a7f3d17d0d27e605ac0fe19c2476289ae67d04b8674ab75dc",
          "transactionIndex": "0x8",
          "logIndex": "0x1b",
          "removed": false
        },
        {
          "address": "0x56984cc217b0a72de3f641af387edd21164bbe78",
          "topics": [
            "0xbce78369dccab09eec1986f4d409ab09ffbb47d65423e5148fcf98411c5111c9",
            "0x000000000000000000000000c928afef2c13fd5cf4284f475eb6794370d20148"
          ],
          "data": "0x0000000000000000000000000000000000000000000000008ac7230489e80000",
          "blockHash": "0x079e04a919e170b9ca16f15ae5cd7d1e962d4c85fb008c5a9e5e756304a68550",
          "blockNumber": "0x0",
          "blockTimestamp": "0x67f4f624",
          "transactionHash": "0x0654a9ca8749602a7f3d17d0d27e605ac0fe19c2476289ae67d04b8674ab75dc",
          "transactionIndex": "0x8",
          "logIndex": "0x1c",
          "removed": false
        },
        {
          "address": "0x56984cc217b0a72de3f641af387edd21164bbe78",
          "topics": [
            "0xf20651f7c9cd4e1c112f77cbf2a13a44f79d4165dd781c41b52052bfc888174a",
            "0x000000000000000000000000c928afef2c13fd5cf4284f475eb6794370d20148"
          ],
          "data": "0x00000000000000000000000000000000000000000000000000000000000000600000000000000000000000000000000000000000000000000000000000000080000000000000000000000000000000000000000000000000000000000000000000000000000000000000000000000000000000000000000000000000000000000000000000000000000000000000000000000000000000000000000000000000",
          "blockHash": "0x079e04a919e170b9ca16f15ae5cd7d1e962d4c85fb008c5a9e5e756304a68550",
          "blockNumber": "0x0",
          "blockTimestamp": "0x67f4f624",
          "transactionHash": "0x0654a9ca8749602a7f3d17d0d27e605ac0fe19c2476289ae67d04b8674ab75dc",
          "transactionIndex": "0x8",
          "logIndex": "0x1d",
          "removed": false
        },
        {
          "address": "0xccf4963de8f039f27e3c1cf3c3add60ed1323771",
          "topics": [
            "0xddf252ad1be2c89b69c2b068fc378daa952ba7f163c4a11628f55a4df523b3ef",
            "0x0000000000000000000000000000000000000000000000000000000000000000",
            "0x000000000000000000000000fabcc4b22ffea25d01ac23c5d225d7b27cb1b6b8"
          ],
          "data": "0x0000000000000000000000000000000000000000000000008ac7230489e80000",
          "blockHash": "0x079e04a919e170b9ca16f15ae5cd7d1e962d4c85fb008c5a9e5e756304a68550",
          "blockNumber": "0x0",
          "blockTimestamp": "0x67f4f624",
          "transactionHash": "0x0654a9ca8749602a7f3d17d0d27e605ac0fe19c2476289ae67d04b8674ab75dc",
          "transactionIndex": "0x8",
          "logIndex": "0x1e",
          "removed": false
        },
        {
          "address": "0xccf4963de8f039f27e3c1cf3c3add60ed1323771",
          "topics": [
            "0xf10dbf1172416c6a968924938bbc2aab7bd8062778b10a53684b1d02894145fd"
          ],
          "data": "0x00000000000000000000000000000000000000010000000000000000000000000000000000000000000000000000000000000000000000000000000000000000",
          "blockHash": "0x079e04a919e170b9ca16f15ae5cd7d1e962d4c85fb008c5a9e5e756304a68550",
          "blockNumber": "0x0",
          "blockTimestamp": "0x67f4f624",
          "transactionHash": "0x0654a9ca8749602a7f3d17d0d27e605ac0fe19c2476289ae67d04b8674ab75dc",
          "transactionIndex": "0x8",
          "logIndex": "0x1f",
          "removed": false
        },
        {
          "address": "0xccf4963de8f039f27e3c1cf3c3add60ed1323771",
          "topics": [
            "0xdcbc1c05240f31ff3ad067ef1ee35ce4997762752e3a095284754544f4c709d7",
            "0x000000000000000000000000fabcc4b22ffea25d01ac23c5d225d7b27cb1b6b8",
            "0x000000000000000000000000fabcc4b22ffea25d01ac23c5d225d7b27cb1b6b8"
          ],
          "data": "0x0000000000000000000000000000000000000000000000008ac7230489e800000000000000000000000000000000000000000000000000008ac7230489e80000",
          "blockHash": "0x079e04a919e170b9ca16f15ae5cd7d1e962d4c85fb008c5a9e5e756304a68550",
          "blockNumber": "0x0",
          "blockTimestamp": "0x67f4f624",
          "transactionHash": "0x0654a9ca8749602a7f3d17d0d27e605ac0fe19c2476289ae67d04b8674ab75dc",
          "transactionIndex": "0x8",
          "logIndex": "0x20",
          "removed": false
        }
      ],
      "logsBloom": "0x00010000020000000000000000000000000000000000002000000000000200000002000000800000000000000008000000000000000100000002000000200000000000400000000040020008000010000000200000000000000000200200000000000000220000000000000000000800000002000004200004000010008004000004000000000200000004040400000000000000000020000000000042000000220000000000000000000000000100000000000000000000000010000000000000000002000000000800000000000000000000001008000000000000200020000010000000000000000000000000000000000000000004000000000000000000",
      "type": "0x0",
      "transactionHash": "0x0654a9ca8749602a7f3d17d0d27e605ac0fe19c2476289ae67d04b8674ab75dc",
      "transactionIndex": "0x8",
      "blockHash": "0x079e04a919e170b9ca16f15ae5cd7d1e962d4c85fb008c5a9e5e756304a68550",
      "blockNumber": "0x0",
      "gasUsed": "0x4b72c",
      "effectiveGasPrice": "0x3c2f5",
      "from": "0xfabcc4b22ffea25d01ac23c5d225d7b27cb1b6b8",
      "to": "0xccf4963de8f039f27e3c1cf3c3add60ed1323771",
      "contractAddress": null
    },
    {
      "status": "0x1",
      "cumulativeGasUsed": "0x13e432",
      "logs": [
        {
          "address": "0xe19ce0acf70dbd7ff9cb80715f84ab0fd72b57ac",
          "topics": [
            "0x8c5be1e5ebec7d5bd14f71427d1e84f3dd0314c0f7b2291e5b200ac8c7c3b925",
            "0x000000000000000000000000fabcc4b22ffea25d01ac23c5d225d7b27cb1b6b8",
            "0x000000000000000000000000ccf4963de8f039f27e3c1cf3c3add60ed1323771"
          ],
          "data": "0x00000000000000000000000000000000000000000000021e19e0c9bab2400000",
          "blockHash": "0x8ec6c1f80de95d57c3a8c1bc2843ce78679ad84fdb019a5615515b338b6a6c9d",
          "blockNumber": "0x0",
          "blockTimestamp": "0x67f4f61e",
          "transactionHash": "0x56e064b2c4cb52bc45ea33a171ff9878c87fa4ed71716a700d205855147f1ce7",
          "transactionIndex": "0x9",
          "logIndex": "0x20",
          "removed": false
        }
      ],
      "logsBloom": "0x00000000020000000000000000000000000000000000000000000000000000000000000000800000000000000000000000000000000100000000000000200000000000000000000040000000000000000000200000000000000000000000000000000000000000000000000000000000000002000000000000000000000000000000000000000000000000040000000000000000000000000000000002000000020000000000000000000000000000000000000000000000000000000000000000000000000000000000000000000000000000000000000000000000000000000010000000000000000000000000000000000000000004000000000000000000",
      "type": "0x0",
      "transactionHash": "0x56e064b2c4cb52bc45ea33a171ff9878c87fa4ed71716a700d205855147f1ce7",
      "transactionIndex": "0x9",
      "blockHash": "0x8ec6c1f80de95d57c3a8c1bc2843ce78679ad84fdb019a5615515b338b6a6c9d",
      "blockNumber": "0x0",
      "gasUsed": "0xb4fa",
      "effectiveGasPrice": "0x3c2f5",
      "from": "0xfabcc4b22ffea25d01ac23c5d225d7b27cb1b6b8",
      "to": "0xe19ce0acf70dbd7ff9cb80715f84ab0fd72b57ac",
      "contractAddress": null
    },
    {
      "status": "0x1",
      "cumulativeGasUsed": "0x191943",
      "logs": [
        {
          "address": "0x321f90864fb21cdcddd0d67fe5e4cbc812ec9e64",
          "topics": [
            "0x8c5be1e5ebec7d5bd14f71427d1e84f3dd0314c0f7b2291e5b200ac8c7c3b925",
            "0x000000000000000000000000c928afef2c13fd5cf4284f475eb6794370d20148",
            "0x00000000000000000000000056984cc217b0a72de3f641af387edd21164bbe78"
          ],
          "data": "0xffffffffffffffffffffffffffffffffffffffffffffffffffffffffffffffff",
          "blockHash": "0x678cf0067f1267ca9f555d3c7de7c174c1a85662ea6cabba0e2c211585de969a",
          "blockNumber": "0x0",
          "blockTimestamp": "0x67f4f62b",
          "transactionHash": "0x5cba9de06805dcd6fbcd0cb4c5745e9293a8ddb7225d711e13e271ada6cc0c5e",
          "transactionIndex": "0x9",
          "logIndex": "0x2e",
          "removed": false
        },
        {
          "address": "0x321f90864fb21cdcddd0d67fe5e4cbc812ec9e64",
          "topics": [
            "0x8c5be1e5ebec7d5bd14f71427d1e84f3dd0314c0f7b2291e5b200ac8c7c3b925",
            "0x000000000000000000000000c928afef2c13fd5cf4284f475eb6794370d20148",
            "0x0000000000000000000000007fc60cf7d77bfed31bc30195b283ec82a417af3f"
          ],
          "data": "0xffffffffffffffffffffffffffffffffffffffffffffffffffffffffffffffff",
          "blockHash": "0x678cf0067f1267ca9f555d3c7de7c174c1a85662ea6cabba0e2c211585de969a",
          "blockNumber": "0x0",
          "blockTimestamp": "0x67f4f62b",
          "transactionHash": "0x5cba9de06805dcd6fbcd0cb4c5745e9293a8ddb7225d711e13e271ada6cc0c5e",
          "transactionIndex": "0x9",
          "logIndex": "0x2f",
          "removed": false
        }
      ],
      "logsBloom": "0x00000000000000000000000000000000000000000000002000000000000000000002000000000000000000000008000000000000000000000000000000200000000000000000000000000000000000000000000000000000000000800200000000000000000000000000000000000000000000000000000000000000000000080000000000000200000000000000000000000000000000000000800000000000220000000000000000000000000000000010000000000000000000000000000000000000000000000000000000000000000000000200000000000000000000000010000000000000000000000000008000000000000000000000000000000000",
      "type": "0x0",
      "transactionHash": "0x5cba9de06805dcd6fbcd0cb4c5745e9293a8ddb7225d711e13e271ada6cc0c5e",
      "transactionIndex": "0x9",
      "blockHash": "0x678cf0067f1267ca9f555d3c7de7c174c1a85662ea6cabba0e2c211585de969a",
      "blockNumber": "0x0",
      "gasUsed": "0x241be",
      "effectiveGasPrice": "0x3c2f5",
      "from": "0xfabcc4b22ffea25d01ac23c5d225d7b27cb1b6b8",
      "to": "0xc928afef2c13fd5cf4284f475eb6794370d20148",
      "contractAddress": null
    }
  ],
  "libraries": [],
  "pending": [],
  "returns": {},
  "timestamp": 1744107056,
  "chain": 3636,
  "commit": null
}