{
  "transactions": [
    {
      "hash": "0x396ac0953903af1178850940d1d029050743b7f5202b1c42f114c926abfbb9b7",
      "transactionType": "CALL",
      "contractName": null,
      "contractAddress": "0xe19ce0acf70dbd7ff9cb80715f84ab0fd72b57ac",
      "function": "approve(address,uint256)",
      "arguments": [
        "0x6d971ed1d2fB6E244Ff061C443d3523ECf1E72d7",
        "10000000000000000000000"
      ],
      "transaction": {
        "from": "0xfabcc4b22ffea25d01ac23c5d225d7b27cb1b6b8",
        "to": "0xe19ce0acf70dbd7ff9cb80715f84ab0fd72b57ac",
        "gas": "0x108ad",
        "value": "0x0",
        "input": "0x095ea7b30000000000000000000000006d971ed1d2fb6e244ff061c443d3523ecf1e72d700000000000000000000000000000000000000000000021e19e0c9bab2400000",
        "nonce": "0x605",
        "chainId": "0xe34"
      },
      "additionalContracts": [],
      "isFixedGasLimit": false
    },
    {
      "hash": "0x536a790b3b21d6f60fb79a7fe9f09c26779eb72fb927095faf17aab31d787e91",
      "transactionType": "CALL",
      "contractName": null,
      "contractAddress": "0x6d971ed1d2fb6e244ff061c443d3523ecf1e72d7",
      "function": "deposit(uint256,address)",
      "arguments": [
        "10000000000000000000",
        "0xFaBcc4b22fFEa25D01AC23c5d225D7B27CB1B6B8"
      ],
      "transaction": {
        "from": "0xfabcc4b22ffea25d01ac23c5d225d7b27cb1b6b8",
        "to": "0x6d971ed1d2fb6e244ff061c443d3523ecf1e72d7",
        "gas": "0x69139",
        "value": "0x0",
        "input": "0x6e553f650000000000000000000000000000000000000000000000008ac7230489e80000000000000000000000000000fabcc4b22ffea25d01ac23c5d225d7b27cb1b6b8",
        "nonce": "0x606",
        "chainId": "0xe34"
      },
      "additionalContracts": [],
      "isFixedGasLimit": false
    }
  ],
  "receipts": [
    {
      "status": "0x1",
      "cumulativeGasUsed": "0x9fe8c",
      "logs": [
        {
          "address": "0xe19ce0acf70dbd7ff9cb80715f84ab0fd72b57ac",
          "topics": [
            "0x8c5be1e5ebec7d5bd14f71427d1e84f3dd0314c0f7b2291e5b200ac8c7c3b925",
            "0x000000000000000000000000fabcc4b22ffea25d01ac23c5d225d7b27cb1b6b8",
            "0x0000000000000000000000006d971ed1d2fb6e244ff061c443d3523ecf1e72d7"
          ],
          "data": "0x00000000000000000000000000000000000000000000021d8f19a6b628580000",
          "blockHash": "0xe85076b16eebd9008177d62be70ad9b41628c54f469cbad686080bfd4ef9f8f3",
          "blockNumber": "0x0",
          "blockTimestamp": "0x67f4e889",
          "transactionHash": "0x536a790b3b21d6f60fb79a7fe9f09c26779eb72fb927095faf17aab31d787e91",
          "transactionIndex": "0x3",
          "logIndex": "0xb",
          "removed": false
        },
        {
          "address": "0xe19ce0acf70dbd7ff9cb80715f84ab0fd72b57ac",
          "topics": [
            "0xddf252ad1be2c89b69c2b068fc378daa952ba7f163c4a11628f55a4df523b3ef",
            "0x000000000000000000000000fabcc4b22ffea25d01ac23c5d225d7b27cb1b6b8",
            "0x0000000000000000000000006d971ed1d2fb6e244ff061c443d3523ecf1e72d7"
          ],
          "data": "0x0000000000000000000000000000000000000000000000008ac7230489e80000",
          "blockHash": "0xe85076b16eebd9008177d62be70ad9b41628c54f469cbad686080bfd4ef9f8f3",
          "blockNumber": "0x0",
          "blockTimestamp": "0x67f4e889",
          "transactionHash": "0x536a790b3b21d6f60fb79a7fe9f09c26779eb72fb927095faf17aab31d787e91",
          "transactionIndex": "0x3",
          "logIndex": "0xc",
          "removed": false
        },
        {
          "address": "0xe19ce0acf70dbd7ff9cb80715f84ab0fd72b57ac",
          "topics": [
            "0xddf252ad1be2c89b69c2b068fc378daa952ba7f163c4a11628f55a4df523b3ef",
            "0x0000000000000000000000006d971ed1d2fb6e244ff061c443d3523ecf1e72d7",
            "0x000000000000000000000000d1ed266c3d4a05bbca7a8cdb50e303d79a071cbd"
          ],
          "data": "0x0000000000000000000000000000000000000000000000008ac7230489e80000",
          "blockHash": "0xe85076b16eebd9008177d62be70ad9b41628c54f469cbad686080bfd4ef9f8f3",
          "blockNumber": "0x0",
          "blockTimestamp": "0x67f4e889",
          "transactionHash": "0x536a790b3b21d6f60fb79a7fe9f09c26779eb72fb927095faf17aab31d787e91",
          "transactionIndex": "0x3",
          "logIndex": "0xd",
          "removed": false
        },
        {
          "address": "0xe19ce0acf70dbd7ff9cb80715f84ab0fd72b57ac",
          "topics": [
            "0xddf252ad1be2c89b69c2b068fc378daa952ba7f163c4a11628f55a4df523b3ef",
            "0x000000000000000000000000d1ed266c3d4a05bbca7a8cdb50e303d79a071cbd",
            "0x00000000000000000000000056984cc217b0a72de3f641af387edd21164bbe78"
          ],
          "data": "0x0000000000000000000000000000000000000000000000008ac7230489e80000",
          "blockHash": "0xe85076b16eebd9008177d62be70ad9b41628c54f469cbad686080bfd4ef9f8f3",
          "blockNumber": "0x0",
          "blockTimestamp": "0x67f4e889",
          "transactionHash": "0x536a790b3b21d6f60fb79a7fe9f09c26779eb72fb927095faf17aab31d787e91",
          "transactionIndex": "0x3",
          "logIndex": "0xe",
          "removed": false
        },
        {
          "address": "0x56984cc217b0a72de3f641af387edd21164bbe78",
          "topics": [
            "0x8c9268469ff6265448f46f8119962e815f393b25b87bb55bda5e709a412b85d7"
          ],
          "data": "0x00000000000000000000000000000000000000000027858e716a133d3531c1eb",
          "blockHash": "0xe85076b16eebd9008177d62be70ad9b41628c54f469cbad686080bfd4ef9f8f3",
          "blockNumber": "0x0",
          "blockTimestamp": "0x67f4e889",
          "transactionHash": "0x536a790b3b21d6f60fb79a7fe9f09c26779eb72fb927095faf17aab31d787e91",
          "transactionIndex": "0x3",
          "logIndex": "0xf",
          "removed": false
        },
        {
          "address": "0x56984cc217b0a72de3f641af387edd21164bbe78",
          "topics": [
            "0xc48943df4095f4f20d171fd2872eafdc0eed4d9014ac3672f3bde7fd425449d5",
            "0x000000000000000000000000d1ed266c3d4a05bbca7a8cdb50e303d79a071cbd"
          ],
          "data": "0x00000000000000000000000000000000000000000000000000bceb3454bf6d9e0000000000000000000000000000000000000000000000000000000000000000",
          "blockHash": "0xe85076b16eebd9008177d62be70ad9b41628c54f469cbad686080bfd4ef9f8f3",
          "blockNumber": "0x0",
          "blockTimestamp": "0x67f4e889",
          "transactionHash": "0x536a790b3b21d6f60fb79a7fe9f09c26779eb72fb927095faf17aab31d787e91",
          "transactionIndex": "0x3",
          "logIndex": "0x10",
          "removed": false
        },
        {
          "address": "0x56984cc217b0a72de3f641af387edd21164bbe78",
          "topics": [
            "0xbce78369dccab09eec1986f4d409ab09ffbb47d65423e5148fcf98411c5111c9",
            "0x000000000000000000000000d1ed266c3d4a05bbca7a8cdb50e303d79a071cbd"
          ],
          "data": "0x0000000000000000000000000000000000000000000000008ac7230489e80000",
          "blockHash": "0xe85076b16eebd9008177d62be70ad9b41628c54f469cbad686080bfd4ef9f8f3",
          "blockNumber": "0x0",
          "blockTimestamp": "0x67f4e889",
          "transactionHash": "0x536a790b3b21d6f60fb79a7fe9f09c26779eb72fb927095faf17aab31d787e91",
          "transactionIndex": "0x3",
          "logIndex": "0x11",
          "removed": false
        },
        {
          "address": "0x56984cc217b0a72de3f641af387edd21164bbe78",
          "topics": [
            "0xf20651f7c9cd4e1c112f77cbf2a13a44f79d4165dd781c41b52052bfc888174a",
            "0x000000000000000000000000d1ed266c3d4a05bbca7a8cdb50e303d79a071cbd"
          ],
          "data": "0x00000000000000000000000000000000000000000000000000000000000000600000000000000000000000000000000000000000000000000000000000000080000000000000000000000000000000000000000000000000000000000000000000000000000000000000000000000000000000000000000000000000000000000000000000000000000000000000000000000000000000000000000000000000",
          "blockHash": "0xe85076b16eebd9008177d62be70ad9b41628c54f469cbad686080bfd4ef9f8f3",
          "blockNumber": "0x0",
          "blockTimestamp": "0x67f4e889",
          "transactionHash": "0x536a790b3b21d6f60fb79a7fe9f09c26779eb72fb927095faf17aab31d787e91",
          "transactionIndex": "0x3",
          "logIndex": "0x12",
          "removed": false
        },
        {
          "address": "0x6d971ed1d2fb6e244ff061c443d3523ecf1e72d7",
          "topics": [
            "0xddf252ad1be2c89b69c2b068fc378daa952ba7f163c4a11628f55a4df523b3ef",
            "0x0000000000000000000000000000000000000000000000000000000000000000",
            "0x000000000000000000000000fabcc4b22ffea25d01ac23c5d225d7b27cb1b6b8"
          ],
          "data": "0x0000000000000000000000000000000000000000000000008ac7230489e80000",
          "blockHash": "0xe85076b16eebd9008177d62be70ad9b41628c54f469cbad686080bfd4ef9f8f3",
          "blockNumber": "0x0",
          "blockTimestamp": "0x67f4e889",
          "transactionHash": "0x536a790b3b21d6f60fb79a7fe9f09c26779eb72fb927095faf17aab31d787e91",
          "transactionIndex": "0x3",
          "logIndex": "0x13",
          "removed": false
        },
        {
          "address": "0x6d971ed1d2fb6e244ff061c443d3523ecf1e72d7",
          "topics": [
            "0xf10dbf1172416c6a968924938bbc2aab7bd8062778b10a53684b1d02894145fd"
          ],
          "data": "0x00000000000000000000000000000000000000010000000000000000000000000000000000000000000000000000000000000000000000000000000000000000",
          "blockHash": "0xe85076b16eebd9008177d62be70ad9b41628c54f469cbad686080bfd4ef9f8f3",
          "blockNumber": "0x0",
          "blockTimestamp": "0x67f4e889",
          "transactionHash": "0x536a790b3b21d6f60fb79a7fe9f09c26779eb72fb927095faf17aab31d787e91",
          "transactionIndex": "0x3",
          "logIndex": "0x14",
          "removed": false
        },
        {
          "address": "0x6d971ed1d2fb6e244ff061c443d3523ecf1e72d7",
          "topics": [
            "0xdcbc1c05240f31ff3ad067ef1ee35ce4997762752e3a095284754544f4c709d7",
            "0x000000000000000000000000fabcc4b22ffea25d01ac23c5d225d7b27cb1b6b8",
            "0x000000000000000000000000fabcc4b22ffea25d01ac23c5d225d7b27cb1b6b8"
          ],
          "data": "0x0000000000000000000000000000000000000000000000008ac7230489e800000000000000000000000000000000000000000000000000008ac7230489e80000",
          "blockHash": "0xe85076b16eebd9008177d62be70ad9b41628c54f469cbad686080bfd4ef9f8f3",
          "blockNumber": "0x0",
          "blockTimestamp": "0x67f4e889",
          "transactionHash": "0x536a790b3b21d6f60fb79a7fe9f09c26779eb72fb927095faf17aab31d787e91",
          "transactionIndex": "0x3",
          "logIndex": "0x15",
          "removed": false
        }
      ],
      "logsBloom": "0x00010000020000000000000000000000000000000000002000000000000200000002000000000000000000000000000000000000000100040002000000200000000000400000000140020008000010000000200000000000000000200000000800000000020000000000000000010800000002000004200004000010008004000000000000000200000004080400000000000000000020000000000040000200020000000000000000000000000104000000000000000000000010000000000000000002000000000800000000000000000000001008000000000000000020000010000000000000000002100000000000000000000004000000000000000000",
      "type": "0x0",
      "transactionHash": "0x536a790b3b21d6f60fb79a7fe9f09c26779eb72fb927095faf17aab31d787e91",
      "transactionIndex": "0x3",
      "blockHash": "0xe85076b16eebd9008177d62be70ad9b41628c54f469cbad686080bfd4ef9f8f3",
      "blockNumber": "0x0",
      "gasUsed": "0x4c12e",
      "effectiveGasPrice": "0x3c1aa",
      "from": "0xfabcc4b22ffea25d01ac23c5d225d7b27cb1b6b8",
      "to": "0x6d971ed1d2fb6e244ff061c443d3523ecf1e72d7",
      "contractAddress": null
    },
    {
      "status": "0x1",
      "cumulativeGasUsed": "0xe6c8a",
      "logs": [
        {
          "address": "0xe19ce0acf70dbd7ff9cb80715f84ab0fd72b57ac",
          "topics": [
            "0x8c5be1e5ebec7d5bd14f71427d1e84f3dd0314c0f7b2291e5b200ac8c7c3b925",
            "0x000000000000000000000000fabcc4b22ffea25d01ac23c5d225d7b27cb1b6b8",
            "0x0000000000000000000000006d971ed1d2fb6e244ff061c443d3523ecf1e72d7"
          ],
          "data": "0x00000000000000000000000000000000000000000000021e19e0c9bab2400000",
          "blockHash": "0x277a4eeae1976eab624514dd32efd36e1e22c8326195592e1b8aa39b26c2365b",
          "blockNumber": "0x0",
          "blockTimestamp": "0x67f4e883",
          "transactionHash": "0x396ac0953903af1178850940d1d029050743b7f5202b1c42f114c926abfbb9b7",
          "transactionIndex": "0x6",
          "logIndex": "0x21",
          "removed": false
        }
      ],
      "logsBloom": "0x00000000020000000000000000000000000000000000000000000000000000000000000000000000000000000000000000000000000100000000000000200000000000000000000040000000000000000000200000000000000000000000000800000000000000000000000000010000000002000000000000000000000000000000000000000000000000000000000000000000000000000000000000000000020000000000000000000000000004000000000000000000000000000000000000000000000000000000000000000000000000000000000000000000000000000010000000000000000000000000000000000000000004000000000000000000",
      "type": "0x0",
      "transactionHash": "0x396ac0953903af1178850940d1d029050743b7f5202b1c42f114c926abfbb9b7",
      "transactionIndex": "0x6",
      "blockHash": "0x277a4eeae1976eab624514dd32efd36e1e22c8326195592e1b8aa39b26c2365b",
      "blockNumber": "0x0",
      "gasUsed": "0xb4fa",
      "effectiveGasPrice": "0x3c1aa",
      "from": "0xfabcc4b22ffea25d01ac23c5d225d7b27cb1b6b8",
      "to": "0xe19ce0acf70dbd7ff9cb80715f84ab0fd72b57ac",
      "contractAddress": null
    }
  ],
  "libraries": [],
  "pending": [],
  "returns": {},
  "timestamp": 1744103569,
  "chain": 3636,
  "commit": null
}