{
  "transactions": [
    {
      "hash": "0x8111ae9af06bbb2acabad1676d4be26d4dc6a64b43706297bdf3644a2f322fae",
      "transactionType": "CALL",
      "contractName": null,
      "contractAddress": "0xe19ce0acf70dbd7ff9cb80715f84ab0fd72b57ac",
      "function": "approve(address,uint256)",
      "arguments": [
        "0xb136071AA97891ccbf919ae4e57AFF7B833e1074",
        "10000000000000000000000"
      ],
      "transaction": {
        "from": "0xfabcc4b22ffea25d01ac23c5d225d7b27cb1b6b8",
        "to": "0xe19ce0acf70dbd7ff9cb80715f84ab0fd72b57ac",
        "gas": "0x108ad",
        "value": "0x0",
        "input": "0x095ea7b3000000000000000000000000b136071aa97891ccbf919ae4e57aff7b833e107400000000000000000000000000000000000000000000021e19e0c9bab2400000",
        "nonce": "0x654",
        "chainId": "0xe34"
      },
      "additionalContracts": [],
      "isFixedGasLimit": false
    },
    {
      "hash": "0x9644a94d32c5d2242416df49b9848780e12b9fbeb93c05601d30217e532c2a2e",
      "transactionType": "CALL",
      "contractName": null,
      "contractAddress": "0xb136071aa97891ccbf919ae4e57aff7b833e1074",
      "function": "deposit(uint256,address)",
      "arguments": [
        "10000000000000000000",
        "0xFaBcc4b22fFEa25D01AC23c5d225D7B27CB1B6B8"
      ],
      "transaction": {
        "from": "0xfabcc4b22ffea25d01ac23c5d225d7b27cb1b6b8",
        "to": "0xb136071aa97891ccbf919ae4e57aff7b833e1074",
        "gas": "0x6911b",
        "value": "0x0",
        "input": "0x6e553f650000000000000000000000000000000000000000000000008ac7230489e80000000000000000000000000000fabcc4b22ffea25d01ac23c5d225d7b27cb1b6b8",
        "nonce": "0x655",
        "chainId": "0xe34"
      },
      "additionalContracts": [],
      "isFixedGasLimit": false
    }
  ],
  "receipts": [
    {
      "status": "0x1",
      "cumulativeGasUsed": "0x165529",
      "logs": [
        {
          "address": "0xe19ce0acf70dbd7ff9cb80715f84ab0fd72b57ac",
          "topics": [
            "0x8c5be1e5ebec7d5bd14f71427d1e84f3dd0314c0f7b2291e5b200ac8c7c3b925",
            "0x000000000000000000000000fabcc4b22ffea25d01ac23c5d225d7b27cb1b6b8",
            "0x000000000000000000000000b136071aa97891ccbf919ae4e57aff7b833e1074"
          ],
          "data": "0x00000000000000000000000000000000000000000000021d8f19a6b628580000",
          "blockHash": "0x29e0608d4d0ecfe5ea5d1b3eccc0c1d1e963db4afa09ddb0676705073c25f53c",
          "blockNumber": "0x0",
          "blockTimestamp": "0x67f63f63",
          "transactionHash": "0x9644a94d32c5d2242416df49b9848780e12b9fbeb93c05601d30217e532c2a2e",
          "transactionIndex": "0x9",
          "logIndex": "0x29",
          "removed": false
        },
        {
          "address": "0xe19ce0acf70dbd7ff9cb80715f84ab0fd72b57ac",
          "topics": [
            "0xddf252ad1be2c89b69c2b068fc378daa952ba7f163c4a11628f55a4df523b3ef",
            "0x000000000000000000000000fabcc4b22ffea25d01ac23c5d225d7b27cb1b6b8",
            "0x000000000000000000000000b136071aa97891ccbf919ae4e57aff7b833e1074"
          ],
          "data": "0x0000000000000000000000000000000000000000000000008ac7230489e80000",
          "blockHash": "0x29e0608d4d0ecfe5ea5d1b3eccc0c1d1e963db4afa09ddb0676705073c25f53c",
          "blockNumber": "0x0",
          "blockTimestamp": "0x67f63f63",
          "transactionHash": "0x9644a94d32c5d2242416df49b9848780e12b9fbeb93c05601d30217e532c2a2e",
          "transactionIndex": "0x9",
          "logIndex": "0x2a",
          "removed": false
        },
        {
          "address": "0xe19ce0acf70dbd7ff9cb80715f84ab0fd72b57ac",
          "topics": [
            "0xddf252ad1be2c89b69c2b068fc378daa952ba7f163c4a11628f55a4df523b3ef",
            "0x000000000000000000000000b136071aa97891ccbf919ae4e57aff7b833e1074",
            "0x000000000000000000000000d073606975186348f77e933dbef483ff73871ab9"
          ],
          "data": "0x0000000000000000000000000000000000000000000000008ac7230489e80000",
          "blockHash": "0x29e0608d4d0ecfe5ea5d1b3eccc0c1d1e963db4afa09ddb0676705073c25f53c",
          "blockNumber": "0x0",
          "blockTimestamp": "0x67f63f63",
          "transactionHash": "0x9644a94d32c5d2242416df49b9848780e12b9fbeb93c05601d30217e532c2a2e",
          "transactionIndex": "0x9",
          "logIndex": "0x2b",
          "removed": false
        },
        {
          "address": "0xe19ce0acf70dbd7ff9cb80715f84ab0fd72b57ac",
          "topics": [
            "0xddf252ad1be2c89b69c2b068fc378daa952ba7f163c4a11628f55a4df523b3ef",
            "0x000000000000000000000000d073606975186348f77e933dbef483ff73871ab9",
            "0x00000000000000000000000056984cc217b0a72de3f641af387edd21164bbe78"
          ],
          "data": "0x0000000000000000000000000000000000000000000000008ac7230489e80000",
          "blockHash": "0x29e0608d4d0ecfe5ea5d1b3eccc0c1d1e963db4afa09ddb0676705073c25f53c",
          "blockNumber": "0x0",
          "blockTimestamp": "0x67f63f63",
          "transactionHash": "0x9644a94d32c5d2242416df49b9848780e12b9fbeb93c05601d30217e532c2a2e",
          "transactionIndex": "0x9",
          "logIndex": "0x2c",
          "removed": false
        },
        {
          "address": "0x56984cc217b0a72de3f641af387edd21164bbe78",
          "topics": [
            "0x8c9268469ff6265448f46f8119962e815f393b25b87bb55bda5e709a412b85d7"
          ],
          "data": "0x00000000000000000000000000000000000000000024be2c8ad445f91af71c02",
          "blockHash": "0x29e0608d4d0ecfe5ea5d1b3eccc0c1d1e963db4afa09ddb0676705073c25f53c",
          "blockNumber": "0x0",
          "blockTimestamp": "0x67f63f63",
          "transactionHash": "0x9644a94d32c5d2242416df49b9848780e12b9fbeb93c05601d30217e532c2a2e",
          "transactionIndex": "0x9",
          "logIndex": "0x2d",
          "removed": false
        },
        {
          "address": "0x56984cc217b0a72de3f641af387edd21164bbe78",
          "topics": [
            "0xc48943df4095f4f20d171fd2872eafdc0eed4d9014ac3672f3bde7fd425449d5",
            "0x000000000000000000000000d073606975186348f77e933dbef483ff73871ab9"
          ],
          "data": "0x00000000000000000000000000000000000000000000000000ad3e54a86af49b0000000000000000000000000000000000000000000000000000000000000000",
          "blockHash": "0x29e0608d4d0ecfe5ea5d1b3eccc0c1d1e963db4afa09ddb0676705073c25f53c",
          "blockNumber": "0x0",
          "blockTimestamp": "0x67f63f63",
          "transactionHash": "0x9644a94d32c5d2242416df49b9848780e12b9fbeb93c05601d30217e532c2a2e",
          "transactionIndex": "0x9",
          "logIndex": "0x2e",
          "removed": false
        },
        {
          "address": "0x56984cc217b0a72de3f641af387edd21164bbe78",
          "topics": [
            "0xbce78369dccab09eec1986f4d409ab09ffbb47d65423e5148fcf98411c5111c9",
            "0x000000000000000000000000d073606975186348f77e933dbef483ff73871ab9"
          ],
          "data": "0x0000000000000000000000000000000000000000000000008ac7230489e80000",
          "blockHash": "0x29e0608d4d0ecfe5ea5d1b3eccc0c1d1e963db4afa09ddb0676705073c25f53c",
          "blockNumber": "0x0",
          "blockTimestamp": "0x67f63f63",
          "transactionHash": "0x9644a94d32c5d2242416df49b9848780e12b9fbeb93c05601d30217e532c2a2e",
          "transactionIndex": "0x9",
          "logIndex": "0x2f",
          "removed": false
        },
        {
          "address": "0x56984cc217b0a72de3f641af387edd21164bbe78",
          "topics": [
            "0xf20651f7c9cd4e1c112f77cbf2a13a44f79d4165dd781c41b52052bfc888174a",
            "0x000000000000000000000000d073606975186348f77e933dbef483ff73871ab9"
          ],
          "data": "0x00000000000000000000000000000000000000000000000000000000000000600000000000000000000000000000000000000000000000000000000000000080000000000000000000000000000000000000000000000000000000000000000000000000000000000000000000000000000000000000000000000000000000000000000000000000000000000000000000000000000000000000000000000000",
          "blockHash": "0x29e0608d4d0ecfe5ea5d1b3eccc0c1d1e963db4afa09ddb0676705073c25f53c",
          "blockNumber": "0x0",
          "blockTimestamp": "0x67f63f63",
          "transactionHash": "0x9644a94d32c5d2242416df49b9848780e12b9fbeb93c05601d30217e532c2a2e",
          "transactionIndex": "0x9",
          "logIndex": "0x30",
          "removed": false
        },
        {
          "address": "0xb136071aa97891ccbf919ae4e57aff7b833e1074",
          "topics": [
            "0xddf252ad1be2c89b69c2b068fc378daa952ba7f163c4a11628f55a4df523b3ef",
            "0x0000000000000000000000000000000000000000000000000000000000000000",
            "0x000000000000000000000000fabcc4b22ffea25d01ac23c5d225d7b27cb1b6b8"
          ],
          "data": "0x0000000000000000000000000000000000000000000000008ac7230489e80000",
          "blockHash": "0x29e0608d4d0ecfe5ea5d1b3eccc0c1d1e963db4afa09ddb0676705073c25f53c",
          "blockNumber": "0x0",
          "blockTimestamp": "0x67f63f63",
          "transactionHash": "0x9644a94d32c5d2242416df49b9848780e12b9fbeb93c05601d30217e532c2a2e",
          "transactionIndex": "0x9",
          "logIndex": "0x31",
          "removed": false
        },
        {
          "address": "0xb136071aa97891ccbf919ae4e57aff7b833e1074",
          "topics": [
            "0xf10dbf1172416c6a968924938bbc2aab7bd8062778b10a53684b1d02894145fd"
          ],
          "data": "0x00000000000000000000000000000000000000010000000000000000000000000000000000000000000000000000000000000000000000000000000000000000",
          "blockHash": "0x29e0608d4d0ecfe5ea5d1b3eccc0c1d1e963db4afa09ddb0676705073c25f53c",
          "blockNumber": "0x0",
          "blockTimestamp": "0x67f63f63",
          "transactionHash": "0x9644a94d32c5d2242416df49b9848780e12b9fbeb93c05601d30217e532c2a2e",
          "transactionIndex": "0x9",
          "logIndex": "0x32",
          "removed": false
        },
        {
          "address": "0xb136071aa97891ccbf919ae4e57aff7b833e1074",
          "topics": [
            "0xdcbc1c05240f31ff3ad067ef1ee35ce4997762752e3a095284754544f4c709d7",
            "0x000000000000000000000000fabcc4b22ffea25d01ac23c5d225d7b27cb1b6b8",
            "0x000000000000000000000000fabcc4b22ffea25d01ac23c5d225d7b27cb1b6b8"
          ],
          "data": "0x0000000000000000000000000000000000000000000000008ac7230489e800000000000000000000000000000000000000000000000000008ac7230489e80000",
          "blockHash": "0x29e0608d4d0ecfe5ea5d1b3eccc0c1d1e963db4afa09ddb0676705073c25f53c",
          "blockNumber": "0x0",
          "blockTimestamp": "0x67f63f63",
          "transactionHash": "0x9644a94d32c5d2242416df49b9848780e12b9fbeb93c05601d30217e532c2a2e",
          "transactionIndex": "0x9",
          "logIndex": "0x33",
          "removed": false
        }
      ],
      "logsBloom": "0x00010000020000000000000000000000000000000000002000000000000200000002000000000000000000000000000000000000000100000002000000200000000004400000000040020008000010000000200000000000000000200000000000000040020000000000000040000800000002000004200004000010008004000000000000000200000004000400000000000000000020000000000040000000020000000000000000000001000100000000000000000000000011000000000000000002000000000800008000000000000000001008000000000000000020000010000000000000000000000002000800000000000004000020000000000000",
      "type": "0x0",
      "transactionHash": "0x9644a94d32c5d2242416df49b9848780e12b9fbeb93c05601d30217e532c2a2e",
      "transactionIndex": "0x9",
      "blockHash": "0x29e0608d4d0ecfe5ea5d1b3eccc0c1d1e963db4afa09ddb0676705073c25f53c",
      "blockNumber": "0x0",
      "gasUsed": "0x4c118",
      "effectiveGasPrice": "0xd5900",
      "from": "0xfabcc4b22ffea25d01ac23c5d225d7b27cb1b6b8",
      "to": "0xb136071aa97891ccbf919ae4e57aff7b833e1074",
      "contractAddress": null
    },
    {
      "status": "0x1",
      "cumulativeGasUsed": "0x1293fa",
      "logs": [
        {
          "address": "0xe19ce0acf70dbd7ff9cb80715f84ab0fd72b57ac",
          "topics": [
            "0x8c5be1e5ebec7d5bd14f71427d1e84f3dd0314c0f7b2291e5b200ac8c7c3b925",
            "0x000000000000000000000000fabcc4b22ffea25d01ac23c5d225d7b27cb1b6b8",
            "0x000000000000000000000000b136071aa97891ccbf919ae4e57aff7b833e1074"
          ],
          "data": "0x00000000000000000000000000000000000000000000021e19e0c9bab2400000",
          "blockHash": "0xb46eaef091071748b22beb9371ba5a8909810b1a271e9a8cb5630061390ab988",
          "blockNumber": "0x1d7bec",
          "blockTimestamp": "0x67f63f57",
          "transactionHash": "0x8111ae9af06bbb2acabad1676d4be26d4dc6a64b43706297bdf3644a2f322fae",
          "transactionIndex": "0x9",
          "logIndex": "0x28",
          "removed": false
        }
      ],
      "logsBloom": "0x00000000020000000000000000000000000000000000000000000000000000000000000000000000000000000000000000000000000100000000000000200000000000000000000040000000000000000000200000000000000000000000000000000040000000000000000000000000000002000000000000000000000000000000000000000000000000000000000000000000000000000000000000000000020000000000000000000000000000000000000000000000000001000000000000000000000000000000000000000000000000000000000000000000000000000010000000000000000000000000000800000000000004000000000000000000",
      "type": "0x0",
      "transactionHash": "0x8111ae9af06bbb2acabad1676d4be26d4dc6a64b43706297bdf3644a2f322fae",
      "transactionIndex": "0x9",
      "blockHash": "0xb46eaef091071748b22beb9371ba5a8909810b1a271e9a8cb5630061390ab988",
      "blockNumber": "0x1d7bec",
      "gasUsed": "0xb4fa",
      "effectiveGasPrice": "0xd5900",
      "from": "0xfabcc4b22ffea25d01ac23c5d225d7b27cb1b6b8",
      "to": "0xe19ce0acf70dbd7ff9cb80715f84ab0fd72b57ac",
      "contractAddress": null
    }
  ],
  "libraries": [],
  "pending": [],
  "returns": {},
  "timestamp": 1744191336,
  "chain": 3636,
  "commit": null
}