{
  "transactions": [
    {
      "hash": "0x9897c4e0695c3b3e76616fc93949dc960d8bbe079fad383e60fe20f104ea217b",
      "transactionType": "CALL",
      "contractName": null,
      "contractAddress": "0xe19ce0acf70dbd7ff9cb80715f84ab0fd72b57ac",
      "function": "approve(address,uint256)",
      "arguments": [
        "0x5b12d22B9B5809ee2882a45af3FdD8528cA55F0c",
        "10000000000000000000000"
      ],
      "transaction": {
        "from": "0xfabcc4b22ffea25d01ac23c5d225d7b27cb1b6b8",
        "to": "0xe19ce0acf70dbd7ff9cb80715f84ab0fd72b57ac",
        "gas": "0x108ad",
        "value": "0x0",
        "input": "0x095ea7b30000000000000000000000005b12d22b9b5809ee2882a45af3fdd8528ca55f0c00000000000000000000000000000000000000000000021e19e0c9bab2400000",
        "nonce": "0x5fd",
        "chainId": "0xe34"
      },
      "additionalContracts": [],
      "isFixedGasLimit": false
    },
    {
      "hash": "0xe18bd1a54f924cabd1df4d6fb82212e8a2b917e5c61a4e78a6487ebacca780ab",
      "transactionType": "CALL",
      "contractName": null,
      "contractAddress": "0x5b12d22b9b5809ee2882a45af3fdd8528ca55f0c",
      "function": "deposit(uint256,address)",
      "arguments": [
        "10000000000000000000",
        "0xFaBcc4b22fFEa25D01AC23c5d225D7B27CB1B6B8"
      ],
      "transaction": {
        "from": "0xfabcc4b22ffea25d01ac23c5d225d7b27cb1b6b8",
        "to": "0x5b12d22b9b5809ee2882a45af3fdd8528ca55f0c",
        "gas": "0x68367",
        "value": "0x0",
        "input": "0x6e553f650000000000000000000000000000000000000000000000008ac7230489e80000000000000000000000000000fabcc4b22ffea25d01ac23c5d225d7b27cb1b6b8",
        "nonce": "0x5fe",
        "chainId": "0xe34"
      },
      "additionalContracts": [],
      "isFixedGasLimit": false
    }
  ],
  "receipts": [
    {
      "status": "0x1",
      "cumulativeGasUsed": "0xa4897",
      "logs": [
        {
          "address": "0xe19ce0acf70dbd7ff9cb80715f84ab0fd72b57ac",
          "topics": [
            "0x8c5be1e5ebec7d5bd14f71427d1e84f3dd0314c0f7b2291e5b200ac8c7c3b925",
            "0x000000000000000000000000fabcc4b22ffea25d01ac23c5d225d7b27cb1b6b8",
            "0x0000000000000000000000005b12d22b9b5809ee2882a45af3fdd8528ca55f0c"
          ],
          "data": "0x00000000000000000000000000000000000000000000021e19e0c9bab2400000",
          "blockHash": "0x30ed2bac65869c54aae28f18f5e24db601bcc3a2b2ecc9276c74ecf58ab4980d",
          "blockNumber": "0x0",
          "blockTimestamp": "0x67f4e1c7",
          "transactionHash": "0x9897c4e0695c3b3e76616fc93949dc960d8bbe079fad383e60fe20f104ea217b",
          "transactionIndex": "0x5",
          "logIndex": "0x1a",
          "removed": false
        }
      ],
      "logsBloom": "0x00000000020000000000000000000000000000000000000000000100000000000000000000000000000000000000000000000000000100000000000000200000000000000000000040000000000000000000200000000000000000000000000000000000000000000000000000000000000002000000000000000000000000000000000000000000000000000000000000000000000000000000000000000000020000000000000000000000000000000000000000000000000000000000000000000000000000000000000000000000000000000000000000000400000000100010000000000000000000000000000000000000000004000000000000000000",
      "type": "0x0",
      "transactionHash": "0x9897c4e0695c3b3e76616fc93949dc960d8bbe079fad383e60fe20f104ea217b",
      "transactionIndex": "0x5",
      "blockHash": "0x30ed2bac65869c54aae28f18f5e24db601bcc3a2b2ecc9276c74ecf58ab4980d",
      "blockNumber": "0x0",
      "gasUsed": "0xb4fa",
      "effectiveGasPrice": "0x3c0ff",
      "from": "0xfabcc4b22ffea25d01ac23c5d225d7b27cb1b6b8",
      "to": "0xe19ce0acf70dbd7ff9cb80715f84ab0fd72b57ac",
      "contractAddress": null
    },
    {
      "status": "0x1",
      "cumulativeGasUsed": "0x1037d9",
      "logs": [
        {
          "address": "0xe19ce0acf70dbd7ff9cb80715f84ab0fd72b57ac",
          "topics": [
            "0x8c5be1e5ebec7d5bd14f71427d1e84f3dd0314c0f7b2291e5b200ac8c7c3b925",
            "0x000000000000000000000000fabcc4b22ffea25d01ac23c5d225d7b27cb1b6b8",
            "0x0000000000000000000000005b12d22b9b5809ee2882a45af3fdd8528ca55f0c"
          ],
          "data": "0x00000000000000000000000000000000000000000000021d8f19a6b628580000",
          "blockHash": "0xd4bc9119ab68690cccbf121704f0c99b07206700d69d700e3c318132849575f6",
          "blockNumber": "0x0",
          "blockTimestamp": "0x67f4e1d4",
          "transactionHash": "0xe18bd1a54f924cabd1df4d6fb82212e8a2b917e5c61a4e78a6487ebacca780ab",
          "transactionIndex": "0x5",
          "logIndex": "0x1a",
          "removed": false
        },
        {
          "address": "0xe19ce0acf70dbd7ff9cb80715f84ab0fd72b57ac",
          "topics": [
            "0xddf252ad1be2c89b69c2b068fc378daa952ba7f163c4a11628f55a4df523b3ef",
            "0x000000000000000000000000fabcc4b22ffea25d01ac23c5d225d7b27cb1b6b8",
            "0x0000000000000000000000005b12d22b9b5809ee2882a45af3fdd8528ca55f0c"
          ],
          "data": "0x0000000000000000000000000000000000000000000000008ac7230489e80000",
          "blockHash": "0xd4bc9119ab68690cccbf121704f0c99b07206700d69d700e3c318132849575f6",
          "blockNumber": "0x0",
          "blockTimestamp": "0x67f4e1d4",
          "transactionHash": "0xe18bd1a54f924cabd1df4d6fb82212e8a2b917e5c61a4e78a6487ebacca780ab",
          "transactionIndex": "0x5",
          "logIndex": "0x1b",
          "removed": false
        },
        {
          "address": "0xe19ce0acf70dbd7ff9cb80715f84ab0fd72b57ac",
          "topics": [
            "0xddf252ad1be2c89b69c2b068fc378daa952ba7f163c4a11628f55a4df523b3ef",
            "0x0000000000000000000000005b12d22b9b5809ee2882a45af3fdd8528ca55f0c",
            "0x000000000000000000000000264738c072832e900f707c708867764a803aae58"
          ],
          "data": "0x0000000000000000000000000000000000000000000000008ac7230489e80000",
          "blockHash": "0xd4bc9119ab68690cccbf121704f0c99b07206700d69d700e3c318132849575f6",
          "blockNumber": "0x0",
          "blockTimestamp": "0x67f4e1d4",
          "transactionHash": "0xe18bd1a54f924cabd1df4d6fb82212e8a2b917e5c61a4e78a6487ebacca780ab",
          "transactionIndex": "0x5",
          "logIndex": "0x1c",
          "removed": false
        },
        {
          "address": "0xe19ce0acf70dbd7ff9cb80715f84ab0fd72b57ac",
          "topics": [
            "0xddf252ad1be2c89b69c2b068fc378daa952ba7f163c4a11628f55a4df523b3ef",
            "0x000000000000000000000000264738c072832e900f707c708867764a803aae58",
            "0x00000000000000000000000056984cc217b0a72de3f641af387edd21164bbe78"
          ],
          "data": "0x0000000000000000000000000000000000000000000000008ac7230489e80000",
          "blockHash": "0xd4bc9119ab68690cccbf121704f0c99b07206700d69d700e3c318132849575f6",
          "blockNumber": "0x0",
          "blockTimestamp": "0x67f4e1d4",
          "transactionHash": "0xe18bd1a54f924cabd1df4d6fb82212e8a2b917e5c61a4e78a6487ebacca780ab",
          "transactionIndex": "0x5",
          "logIndex": "0x1d",
          "removed": false
        },
        {
          "address": "0x56984cc217b0a72de3f641af387edd21164bbe78",
          "topics": [
            "0x8c9268469ff6265448f46f8119962e815f393b25b87bb55bda5e709a412b85d7"
          ],
          "data": "0x000000000000000000000000000000000000000000278aeaf0e183de2a0c5483",
          "blockHash": "0xd4bc9119ab68690cccbf121704f0c99b07206700d69d700e3c318132849575f6",
          "blockNumber": "0x0",
          "blockTimestamp": "0x67f4e1d4",
          "transactionHash": "0xe18bd1a54f924cabd1df4d6fb82212e8a2b917e5c61a4e78a6487ebacca780ab",
          "transactionIndex": "0x5",
          "logIndex": "0x1e",
          "removed": false
        },
        {
          "address": "0x56984cc217b0a72de3f641af387edd21164bbe78",
          "topics": [
            "0xc48943df4095f4f20d171fd2872eafdc0eed4d9014ac3672f3bde7fd425449d5",
            "0x000000000000000000000000264738c072832e900f707c708867764a803aae58"
          ],
          "data": "0x00000000000000000000000000000000000000000000000000bceb3454bf6d9e0000000000000000000000000000000000000000000000000000000000000000",
          "blockHash": "0xd4bc9119ab68690cccbf121704f0c99b07206700d69d700e3c318132849575f6",
          "blockNumber": "0x0",
          "blockTimestamp": "0x67f4e1d4",
          "transactionHash": "0xe18bd1a54f924cabd1df4d6fb82212e8a2b917e5c61a4e78a6487ebacca780ab",
          "transactionIndex": "0x5",
          "logIndex": "0x1f",
          "removed": false
        },
        {
          "address": "0x56984cc217b0a72de3f641af387edd21164bbe78",
          "topics": [
            "0xbce78369dccab09eec1986f4d409ab09ffbb47d65423e5148fcf98411c5111c9",
            "0x000000000000000000000000264738c072832e900f707c708867764a803aae58"
          ],
          "data": "0x0000000000000000000000000000000000000000000000008ac7230489e80000",
          "blockHash": "0xd4bc9119ab68690cccbf121704f0c99b07206700d69d700e3c318132849575f6",
          "blockNumber": "0x0",
          "blockTimestamp": "0x67f4e1d4",
          "transactionHash": "0xe18bd1a54f924cabd1df4d6fb82212e8a2b917e5c61a4e78a6487ebacca780ab",
          "transactionIndex": "0x5",
          "logIndex": "0x20",
          "removed": false
        },
        {
          "address": "0x56984cc217b0a72de3f641af387edd21164bbe78",
          "topics": [
            "0xf20651f7c9cd4e1c112f77cbf2a13a44f79d4165dd781c41b52052bfc888174a",
            "0x000000000000000000000000264738c072832e900f707c708867764a803aae58"
          ],
          "data": "0x00000000000000000000000000000000000000000000000000000000000000600000000000000000000000000000000000000000000000000000000000000080000000000000000000000000000000000000000000000000000000000000000000000000000000000000000000000000000000000000000000000000000000000000000000000000000000000000000000000000000000000000000000000000",
          "blockHash": "0xd4bc9119ab68690cccbf121704f0c99b07206700d69d700e3c318132849575f6",
          "blockNumber": "0x0",
          "blockTimestamp": "0x67f4e1d4",
          "transactionHash": "0xe18bd1a54f924cabd1df4d6fb82212e8a2b917e5c61a4e78a6487ebacca780ab",
          "transactionIndex": "0x5",
          "logIndex": "0x21",
          "removed": false
        },
        {
          "address": "0x5b12d22b9b5809ee2882a45af3fdd8528ca55f0c",
          "topics": [
            "0xddf252ad1be2c89b69c2b068fc378daa952ba7f163c4a11628f55a4df523b3ef",
            "0x0000000000000000000000000000000000000000000000000000000000000000",
            "0x000000000000000000000000fabcc4b22ffea25d01ac23c5d225d7b27cb1b6b8"
          ],
          "data": "0x0000000000000000000000000000000000000000000000008ac7230489e80000",
          "blockHash": "0xd4bc9119ab68690cccbf121704f0c99b07206700d69d700e3c318132849575f6",
          "blockNumber": "0x0",
          "blockTimestamp": "0x67f4e1d4",
          "transactionHash": "0xe18bd1a54f924cabd1df4d6fb82212e8a2b917e5c61a4e78a6487ebacca780ab",
          "transactionIndex": "0x5",
          "logIndex": "0x22",
          "removed": false
        },
        {
          "address": "0x5b12d22b9b5809ee2882a45af3fdd8528ca55f0c",
          "topics": [
            "0xf10dbf1172416c6a968924938bbc2aab7bd8062778b10a53684b1d02894145fd"
          ],
          "data": "0x00000000000000000000000000000000000000010000000000000000000000000000000000000000000000000000000000000000000000000000000000000000",
          "blockHash": "0xd4bc9119ab68690cccbf121704f0c99b07206700d69d700e3c318132849575f6",
          "blockNumber": "0x0",
          "blockTimestamp": "0x67f4e1d4",
          "transactionHash": "0xe18bd1a54f924cabd1df4d6fb82212e8a2b917e5c61a4e78a6487ebacca780ab",
          "transactionIndex": "0x5",
          "logIndex": "0x23",
          "removed": false
        },
        {
          "address": "0x5b12d22b9b5809ee2882a45af3fdd8528ca55f0c",
          "topics": [
            "0xdcbc1c05240f31ff3ad067ef1ee35ce4997762752e3a095284754544f4c709d7",
            "0x000000000000000000000000fabcc4b22ffea25d01ac23c5d225d7b27cb1b6b8",
            "0x000000000000000000000000fabcc4b22ffea25d01ac23c5d225d7b27cb1b6b8"
          ],
          "data": "0x0000000000000000000000000000000000000000000000008ac7230489e800000000000000000000000000000000000000000000000000008ac7230489e80000",
          "blockHash": "0xd4bc9119ab68690cccbf121704f0c99b07206700d69d700e3c318132849575f6",
          "blockNumber": "0x0",
          "blockTimestamp": "0x67f4e1d4",
          "transactionHash": "0xe18bd1a54f924cabd1df4d6fb82212e8a2b917e5c61a4e78a6487ebacca780ab",
          "transactionIndex": "0x5",
          "logIndex": "0x24",
          "removed": false
        }
      ],
      "logsBloom": "0x00010000020000000000000000000000000000000000002000000100000200000002000000000200000000000000040000000000000100000002000000200000000000410000000040020008000010000000200000000000000000200000000000000000020000000000000000000800000002000004200004000010008004040000000000000208000004000400000000000000000020000000000040000000020000000000000000000000000100000000000000000000000010001000000000000002000000000800000000000000000000001008000000000400000020100010000000000000000000000000000000000000000004000000000000000000",
      "type": "0x0",
      "transactionHash": "0xe18bd1a54f924cabd1df4d6fb82212e8a2b917e5c61a4e78a6487ebacca780ab",
      "transactionIndex": "0x5",
      "blockHash": "0xd4bc9119ab68690cccbf121704f0c99b07206700d69d700e3c318132849575f6",
      "blockNumber": "0x0",
      "gasUsed": "0x4b72c",
      "effectiveGasPrice": "0x3c0ff",
      "from": "0xfabcc4b22ffea25d01ac23c5d225d7b27cb1b6b8",
      "to": "0x5b12d22b9b5809ee2882a45af3fdd8528ca55f0c",
      "contractAddress": null
    }
  ],
  "libraries": [],
  "pending": [],
  "returns": {},
  "timestamp": 1744101846,
  "chain": 3636,
  "commit": null
}