{
  "transactions": [
    {
      "hash": "0xf282d8224391ec6b5f2e99b28014885b6801e5863ee03e2b8508eceffd910750",
      "transactionType": "CALL",
      "contractName": null,
      "contractAddress": "0xe19ce0acf70dbd7ff9cb80715f84ab0fd72b57ac",
      "function": "approve(address,uint256)",
      "arguments": [
        "0x4C52b0A03E1Da8DDCfbECa073962B26002403213",
        "10000000000000000000000"
      ],
      "transaction": {
        "from": "0xfabcc4b22ffea25d01ac23c5d225d7b27cb1b6b8",
        "to": "0xe19ce0acf70dbd7ff9cb80715f84ab0fd72b57ac",
        "gas": "0x9db4",
        "value": "0x0",
        "input": "0x095ea7b30000000000000000000000004c52b0a03e1da8ddcfbeca073962b2600240321300000000000000000000000000000000000000000000021e19e0c9bab2400000",
        "nonce": "0x6ef",
        "chainId": "0xe34"
      },
      "additionalContracts": [],
      "isFixedGasLimit": false
    },
    {
      "hash": "0x5a8a42b5b3086f6bce4285004d1f62e6ff6088f072b8c01a2a1fd60c6f56ef33",
      "transactionType": "CALL",
      "contractName": null,
      "contractAddress": "0x4c52b0a03e1da8ddcfbeca073962b26002403213",
      "function": "deposit(uint256,address)",
      "arguments": [
        "10000000000000000000",
        "0xFaBcc4b22fFEa25D01AC23c5d225D7B27CB1B6B8"
      ],
      "transaction": {
        "from": "0xfabcc4b22ffea25d01ac23c5d225d7b27cb1b6b8",
        "to": "0x4c52b0a03e1da8ddcfbeca073962b26002403213",
        "gas": "0x6911b",
        "value": "0x0",
        "input": "0x6e553f650000000000000000000000000000000000000000000000008ac7230489e80000000000000000000000000000fabcc4b22ffea25d01ac23c5d225d7b27cb1b6b8",
        "nonce": "0x6f0",
        "chainId": "0xe34"
      },
      "additionalContracts": [],
      "isFixedGasLimit": false
    }
  ],
  "receipts": [
    {
      "status": "0x1",
      "cumulativeGasUsed": "0x6dd18",
      "logs": [
        {
          "address": "0xe19ce0acf70dbd7ff9cb80715f84ab0fd72b57ac",
          "topics": [
            "0x8c5be1e5ebec7d5bd14f71427d1e84f3dd0314c0f7b2291e5b200ac8c7c3b925",
            "0x000000000000000000000000fabcc4b22ffea25d01ac23c5d225d7b27cb1b6b8",
            "0x0000000000000000000000004c52b0a03e1da8ddcfbeca073962b26002403213"
          ],
          "data": "0x00000000000000000000000000000000000000000000021d8f19a6b628580000",
          "blockHash": "0x94f982ef66ec93cb6b5a9664e55734122b122c531d3e843b01b93799ba1cafc7",
          "blockNumber": "0x0",
          "blockTimestamp": "0x67fcf2e3",
          "transactionHash": "0x5a8a42b5b3086f6bce4285004d1f62e6ff6088f072b8c01a2a1fd60c6f56ef33",
          "transactionIndex": "0x1",
          "logIndex": "0x5",
          "removed": false
        },
        {
          "address": "0xe19ce0acf70dbd7ff9cb80715f84ab0fd72b57ac",
          "topics": [
            "0xddf252ad1be2c89b69c2b068fc378daa952ba7f163c4a11628f55a4df523b3ef",
            "0x000000000000000000000000fabcc4b22ffea25d01ac23c5d225d7b27cb1b6b8",
            "0x0000000000000000000000004c52b0a03e1da8ddcfbeca073962b26002403213"
          ],
          "data": "0x0000000000000000000000000000000000000000000000008ac7230489e80000",
          "blockHash": "0x94f982ef66ec93cb6b5a9664e55734122b122c531d3e843b01b93799ba1cafc7",
          "blockNumber": "0x0",
          "blockTimestamp": "0x67fcf2e3",
          "transactionHash": "0x5a8a42b5b3086f6bce4285004d1f62e6ff6088f072b8c01a2a1fd60c6f56ef33",
          "transactionIndex": "0x1",
          "logIndex": "0x6",
          "removed": false
        },
        {
          "address": "0xe19ce0acf70dbd7ff9cb80715f84ab0fd72b57ac",
          "topics": [
            "0xddf252ad1be2c89b69c2b068fc378daa952ba7f163c4a11628f55a4df523b3ef",
            "0x0000000000000000000000004c52b0a03e1da8ddcfbeca073962b26002403213",
            "0x00000000000000000000000032c25e90e50990a05cd5dea3b7b755abe51790b5"
          ],
          "data": "0x0000000000000000000000000000000000000000000000008ac7230489e80000",
          "blockHash": "0x94f982ef66ec93cb6b5a9664e55734122b122c531d3e843b01b93799ba1cafc7",
          "blockNumber": "0x0",
          "blockTimestamp": "0x67fcf2e3",
          "transactionHash": "0x5a8a42b5b3086f6bce4285004d1f62e6ff6088f072b8c01a2a1fd60c6f56ef33",
          "transactionIndex": "0x1",
          "logIndex": "0x7",
          "removed": false
        },
        {
          "address": "0xe19ce0acf70dbd7ff9cb80715f84ab0fd72b57ac",
          "topics": [
            "0xddf252ad1be2c89b69c2b068fc378daa952ba7f163c4a11628f55a4df523b3ef",
            "0x00000000000000000000000032c25e90e50990a05cd5dea3b7b755abe51790b5",
            "0x00000000000000000000000056984cc217b0a72de3f641af387edd21164bbe78"
          ],
          "data": "0x0000000000000000000000000000000000000000000000008ac7230489e80000",
          "blockHash": "0x94f982ef66ec93cb6b5a9664e55734122b122c531d3e843b01b93799ba1cafc7",
          "blockNumber": "0x0",
          "blockTimestamp": "0x67fcf2e3",
          "transactionHash": "0x5a8a42b5b3086f6bce4285004d1f62e6ff6088f072b8c01a2a1fd60c6f56ef33",
          "transactionIndex": "0x1",
          "logIndex": "0x8",
          "removed": false
        },
        {
          "address": "0x56984cc217b0a72de3f641af387edd21164bbe78",
          "topics": [
            "0x8c9268469ff6265448f46f8119962e815f393b25b87bb55bda5e709a412b85d7"
          ],
          "data": "0x00000000000000000000000000000000000000000024d4ab7e0b2ea7f3a7c470",
          "blockHash": "0x94f982ef66ec93cb6b5a9664e55734122b122c531d3e843b01b93799ba1cafc7",
          "blockNumber": "0x0",
          "blockTimestamp": "0x67fcf2e3",
          "transactionHash": "0x5a8a42b5b3086f6bce4285004d1f62e6ff6088f072b8c01a2a1fd60c6f56ef33",
          "transactionIndex": "0x1",
          "logIndex": "0x9",
          "removed": false
        },
        {
          "address": "0x56984cc217b0a72de3f641af387edd21164bbe78",
          "topics": [
            "0xc48943df4095f4f20d171fd2872eafdc0eed4d9014ac3672f3bde7fd425449d5",
            "0x00000000000000000000000032c25e90e50990a05cd5dea3b7b755abe51790b5"
          ],
          "data": "0x00000000000000000000000000000000000000000000000000aa4e368d0d31270000000000000000000000000000000000000000000000000000000000000000",
          "blockHash": "0x94f982ef66ec93cb6b5a9664e55734122b122c531d3e843b01b93799ba1cafc7",
          "blockNumber": "0x0",
          "blockTimestamp": "0x67fcf2e3",
          "transactionHash": "0x5a8a42b5b3086f6bce4285004d1f62e6ff6088f072b8c01a2a1fd60c6f56ef33",
          "transactionIndex": "0x1",
          "logIndex": "0xa",
          "removed": false
        },
        {
          "address": "0x56984cc217b0a72de3f641af387edd21164bbe78",
          "topics": [
            "0xbce78369dccab09eec1986f4d409ab09ffbb47d65423e5148fcf98411c5111c9",
            "0x00000000000000000000000032c25e90e50990a05cd5dea3b7b755abe51790b5"
          ],
          "data": "0x0000000000000000000000000000000000000000000000008ac7230489e80000",
          "blockHash": "0x94f982ef66ec93cb6b5a9664e55734122b122c531d3e843b01b93799ba1cafc7",
          "blockNumber": "0x0",
          "blockTimestamp": "0x67fcf2e3",
          "transactionHash": "0x5a8a42b5b3086f6bce4285004d1f62e6ff6088f072b8c01a2a1fd60c6f56ef33",
          "transactionIndex": "0x1",
          "logIndex": "0xb",
          "removed": false
        },
        {
          "address": "0x56984cc217b0a72de3f641af387edd21164bbe78",
          "topics": [
            "0xf20651f7c9cd4e1c112f77cbf2a13a44f79d4165dd781c41b52052bfc888174a",
            "0x00000000000000000000000032c25e90e50990a05cd5dea3b7b755abe51790b5"
          ],
          "data": "0x00000000000000000000000000000000000000000000000000000000000000600000000000000000000000000000000000000000000000000000000000000080000000000000000000000000000000000000000000000000000000000000000000000000000000000000000000000000000000000000000000000000000000000000000000000000000000000000000000000000000000000000000000000000",
          "blockHash": "0x94f982ef66ec93cb6b5a9664e55734122b122c531d3e843b01b93799ba1cafc7",
          "blockNumber": "0x0",
          "blockTimestamp": "0x67fcf2e3",
          "transactionHash": "0x5a8a42b5b3086f6bce4285004d1f62e6ff6088f072b8c01a2a1fd60c6f56ef33",
          "transactionIndex": "0x1",
          "logIndex": "0xc",
          "removed": false
        },
        {
          "address": "0x4c52b0a03e1da8ddcfbeca073962b26002403213",
          "topics": [
            "0xddf252ad1be2c89b69c2b068fc378daa952ba7f163c4a11628f55a4df523b3ef",
            "0x0000000000000000000000000000000000000000000000000000000000000000",
            "0x000000000000000000000000fabcc4b22ffea25d01ac23c5d225d7b27cb1b6b8"
          ],
          "data": "0x0000000000000000000000000000000000000000000000008ac7230489e80000",
          "blockHash": "0x94f982ef66ec93cb6b5a9664e55734122b122c531d3e843b01b93799ba1cafc7",
          "blockNumber": "0x0",
          "blockTimestamp": "0x67fcf2e3",
          "transactionHash": "0x5a8a42b5b3086f6bce4285004d1f62e6ff6088f072b8c01a2a1fd60c6f56ef33",
          "transactionIndex": "0x1",
          "logIndex": "0xd",
          "removed": false
        },
        {
          "address": "0x4c52b0a03e1da8ddcfbeca073962b26002403213",
          "topics": [
            "0xf10dbf1172416c6a968924938bbc2aab7bd8062778b10a53684b1d02894145fd"
          ],
          "data": "0x00000000000000000000000000000000000000010000000000000000000000000000000000000000000000000000000000000000000000000000000000000000",
          "blockHash": "0x94f982ef66ec93cb6b5a9664e55734122b122c531d3e843b01b93799ba1cafc7",
          "blockNumber": "0x0",
          "blockTimestamp": "0x67fcf2e3",
          "transactionHash": "0x5a8a42b5b3086f6bce4285004d1f62e6ff6088f072b8c01a2a1fd60c6f56ef33",
          "transactionIndex": "0x1",
          "logIndex": "0xe",
          "removed": false
        },
        {
          "address": "0x4c52b0a03e1da8ddcfbeca073962b26002403213",
          "topics": [
            "0xdcbc1c05240f31ff3ad067ef1ee35ce4997762752e3a095284754544f4c709d7",
            "0x000000000000000000000000fabcc4b22ffea25d01ac23c5d225d7b27cb1b6b8",
            "0x000000000000000000000000fabcc4b22ffea25d01ac23c5d225d7b27cb1b6b8"
          ],
          "data": "0x0000000000000000000000000000000000000000000000008ac7230489e800000000000000000000000000000000000000000000000000008ac7230489e80000",
          "blockHash": "0x94f982ef66ec93cb6b5a9664e55734122b122c531d3e843b01b93799ba1cafc7",
          "blockNumber": "0x0",
          "blockTimestamp": "0x67fcf2e3",
          "transactionHash": "0x5a8a42b5b3086f6bce4285004d1f62e6ff6088f072b8c01a2a1fd60c6f56ef33",
          "transactionIndex": "0x1",
          "logIndex": "0xf",
          "removed": false
        }
      ],
      "logsBloom": "0x00010000020000000000000000000000000000000000002000000000000280000002000000000000000000000002000000000000000100000002000000200000000000400000000040020008020010000000200000000000000000200000000000000020020000000000000000000800000002000004200004000010008004000000000080008200000004000400000001000000000020000000000040000000020000000000000000000000000100000000000000000000000110000400000000000002000000000800000000000000000000001008000000000000000020000010000000000000000000000000000000000000000004000000000000000000",
      "type": "0x0",
      "transactionHash": "0x5a8a42b5b3086f6bce4285004d1f62e6ff6088f072b8c01a2a1fd60c6f56ef33",
      "transactionIndex": "0x1",
      "blockHash": "0x94f982ef66ec93cb6b5a9664e55734122b122c531d3e843b01b93799ba1cafc7",
      "blockNumber": "0x0",
      "gasUsed": "0x4c118",
      "effectiveGasPrice": "0xd5760",
      "from": "0xfabcc4b22ffea25d01ac23c5d225d7b27cb1b6b8",
      "to": "0x4c52b0a03e1da8ddcfbeca073962b26002403213",
      "contractAddress": null
    },
    {
      "status": "0x1",
      "cumulativeGasUsed": "0x573aa",
      "logs": [
        {
          "address": "0xe19ce0acf70dbd7ff9cb80715f84ab0fd72b57ac",
          "topics": [
            "0x8c5be1e5ebec7d5bd14f71427d1e84f3dd0314c0f7b2291e5b200ac8c7c3b925",
            "0x000000000000000000000000fabcc4b22ffea25d01ac23c5d225d7b27cb1b6b8",
            "0x0000000000000000000000004c52b0a03e1da8ddcfbeca073962b26002403213"
          ],
          "data": "0x00000000000000000000000000000000000000000000021e19e0c9bab2400000",
          "blockHash": "0xf948161d4fca1f56fa30666fd9d8ab960f54da12540cf86e9eb3556eeab04e4f",
          "blockNumber": "0x0",
          "blockTimestamp": "0x67fcf2dd",
          "transactionHash": "0xf282d8224391ec6b5f2e99b28014885b6801e5863ee03e2b8508eceffd910750",
          "transactionIndex": "0x3",
          "logIndex": "0xb",
          "removed": false
        }
      ],
      "logsBloom": "0x00000000020000000000000000000000000000000000000000000000000000000000000000000000000000000002000000000000000100000000000000200000000000000000000040000000000000000000200000000000000000000000000000000020000000000000000000000000000002000000000000000000000000000000000080000000000000000000000000000000000000000000000000000000020000000000000000000000000000000000000000000000000000000000000000000000000000000000000000000000000000000000000000000000000000000010000000000000000000000000000000000000000004000000000000000000",
      "type": "0x0",
      "transactionHash": "0xf282d8224391ec6b5f2e99b28014885b6801e5863ee03e2b8508eceffd910750",
      "transactionIndex": "0x3",
      "blockHash": "0xf948161d4fca1f56fa30666fd9d8ab960f54da12540cf86e9eb3556eeab04e4f",
      "blockNumber": "0x0",
      "gasUsed": "0x722e",
      "effectiveGasPrice": "0xd5760",
      "from": "0xfabcc4b22ffea25d01ac23c5d225d7b27cb1b6b8",
      "to": "0xe19ce0acf70dbd7ff9cb80715f84ab0fd72b57ac",
      "contractAddress": null
    }
  ],
  "libraries": [],
  "pending": [],
  "returns": {},
  "timestamp": 1744630506,
  "chain": 3636,
  "commit": null
}