{
  "transactions": [
    {
      "hash": "0xa9a3954f4444923772f16faec87983d061d784c6c3a24122f9d977fc368ff198",
      "transactionType": "CALL",
      "contractName": null,
      "contractAddress": "0xe19ce0acf70dbd7ff9cb80715f84ab0fd72b57ac",
      "function": "approve(address,uint256)",
      "arguments": [
        "0xFb38B4aa28b98f9C010ff5A81660b2819B8acCE1",
        "10000000000000000000000"
      ],
      "transaction": {
        "from": "0xfabcc4b22ffea25d01ac23c5d225d7b27cb1b6b8",
        "to": "0xe19ce0acf70dbd7ff9cb80715f84ab0fd72b57ac",
        "gas": "0x9db4",
        "value": "0x0",
        "input": "0x095ea7b3000000000000000000000000fb38b4aa28b98f9c010ff5a81660b2819b8acce100000000000000000000000000000000000000000000021e19e0c9bab2400000",
        "nonce": "0x665",
        "chainId": "0xe34"
      },
      "additionalContracts": [],
      "isFixedGasLimit": false
    },
    {
      "hash": "0x1457ada93f7c1aa5d808e00a37e726ea13e8836ece8ac3efe134d54fd04ad060",
      "transactionType": "CALL",
      "contractName": null,
      "contractAddress": "0xfb38b4aa28b98f9c010ff5a81660b2819b8acce1",
      "function": "deposit(uint256,address)",
      "arguments": [
        "10000000000000000000",
        "0xFaBcc4b22fFEa25D01AC23c5d225D7B27CB1B6B8"
      ],
      "transaction": {
        "from": "0xfabcc4b22ffea25d01ac23c5d225d7b27cb1b6b8",
        "to": "0xfb38b4aa28b98f9c010ff5a81660b2819b8acce1",
        "gas": "0x5cd7d",
        "value": "0x0",
        "input": "0x6e553f650000000000000000000000000000000000000000000000008ac7230489e80000000000000000000000000000fabcc4b22ffea25d01ac23c5d225d7b27cb1b6b8",
        "nonce": "0x666",
        "chainId": "0xe34"
      },
      "additionalContracts": [],
      "isFixedGasLimit": false
    }
  ],
  "receipts": [
    {
      "status": "0x1",
      "cumulativeGasUsed": "0x8b260",
      "logs": [
        {
          "address": "0xe19ce0acf70dbd7ff9cb80715f84ab0fd72b57ac",
          "topics": [
            "0x8c5be1e5ebec7d5bd14f71427d1e84f3dd0314c0f7b2291e5b200ac8c7c3b925",
            "0x000000000000000000000000fabcc4b22ffea25d01ac23c5d225d7b27cb1b6b8",
            "0x000000000000000000000000fb38b4aa28b98f9c010ff5a81660b2819b8acce1"
          ],
          "data": "0x00000000000000000000000000000000000000000000021e19e0c9bab2400000",
          "blockHash": "0x0933258b6bdda23d0d5a777c72f72a971421ddfc0ed7287c1eec5ef94a93ce56",
          "blockNumber": "0x0",
          "blockTimestamp": "0x67f644d7",
          "transactionHash": "0xa9a3954f4444923772f16faec87983d061d784c6c3a24122f9d977fc368ff198",
          "transactionIndex": "0x5",
          "logIndex": "0x10",
          "removed": false
        }
      ],
      "logsBloom": "0x00000040020000000000000000000000000020000000000000000000000000000000000000000000000000000000000000000000000100000000000000200000000000000000000040000000000000000000200000000000000000000000000000000000000000000000000000000000000002000000000000000000000000000000000000000000000000000000000000000000000000000000000000000000020000000000000000000000000000000000000000000000000000000000000000000000000000000000000000000000000000000000000000000000100000000010000000000000000000000000000000000000000004000000000000000000",
      "type": "0x0",
      "transactionHash": "0xa9a3954f4444923772f16faec87983d061d784c6c3a24122f9d977fc368ff198",
      "transactionIndex": "0x5",
      "blockHash": "0x0933258b6bdda23d0d5a777c72f72a971421ddfc0ed7287c1eec5ef94a93ce56",
      "blockNumber": "0x0",
      "gasUsed": "0x722e",
      "effectiveGasPrice": "0xd5969",
      "from": "0xfabcc4b22ffea25d01ac23c5d225d7b27cb1b6b8",
      "to": "0xe19ce0acf70dbd7ff9cb80715f84ab0fd72b57ac",
      "contractAddress": null
    },
    {
      "status": "0x1",
      "cumulativeGasUsed": "0x98b98",
      "logs": [
        {
          "address": "0xe19ce0acf70dbd7ff9cb80715f84ab0fd72b57ac",
          "topics": [
            "0x8c5be1e5ebec7d5bd14f71427d1e84f3dd0314c0f7b2291e5b200ac8c7c3b925",
            "0x000000000000000000000000fabcc4b22ffea25d01ac23c5d225d7b27cb1b6b8",
            "0x000000000000000000000000fb38b4aa28b98f9c010ff5a81660b2819b8acce1"
          ],
          "data": "0x00000000000000000000000000000000000000000000021d8f19a6b628580000",
          "blockHash": "0x284d1477f6241451a91b0b67999fa390071cb383167a6941cd0003ce1b53eff7",
          "blockNumber": "0x1d7cca",
          "blockTimestamp": "0x67f644dd",
          "transactionHash": "0x1457ada93f7c1aa5d808e00a37e726ea13e8836ece8ac3efe134d54fd04ad060",
          "transactionIndex": "0x3",
          "logIndex": "0xc",
          "removed": false
        },
        {
          "address": "0xe19ce0acf70dbd7ff9cb80715f84ab0fd72b57ac",
          "topics": [
            "0xddf252ad1be2c89b69c2b068fc378daa952ba7f163c4a11628f55a4df523b3ef",
            "0x000000000000000000000000fabcc4b22ffea25d01ac23c5d225d7b27cb1b6b8",
            "0x000000000000000000000000fb38b4aa28b98f9c010ff5a81660b2819b8acce1"
          ],
          "data": "0x0000000000000000000000000000000000000000000000008ac7230489e80000",
          "blockHash": "0x284d1477f6241451a91b0b67999fa390071cb383167a6941cd0003ce1b53eff7",
          "blockNumber": "0x1d7cca",
          "blockTimestamp": "0x67f644dd",
          "transactionHash": "0x1457ada93f7c1aa5d808e00a37e726ea13e8836ece8ac3efe134d54fd04ad060",
          "transactionIndex": "0x3",
          "logIndex": "0xd",
          "removed": false
        },
        {
          "address": "0xe19ce0acf70dbd7ff9cb80715f84ab0fd72b57ac",
          "topics": [
            "0xddf252ad1be2c89b69c2b068fc378daa952ba7f163c4a11628f55a4df523b3ef",
            "0x000000000000000000000000fb38b4aa28b98f9c010ff5a81660b2819b8acce1",
            "0x000000000000000000000000492d6c57e1a3d79f1d7d79e44dba6aa81a9f39ec"
          ],
          "data": "0x0000000000000000000000000000000000000000000000008ac7230489e80000",
          "blockHash": "0x284d1477f6241451a91b0b67999fa390071cb383167a6941cd0003ce1b53eff7",
          "blockNumber": "0x1d7cca",
          "blockTimestamp": "0x67f644dd",
          "transactionHash": "0x1457ada93f7c1aa5d808e00a37e726ea13e8836ece8ac3efe134d54fd04ad060",
          "transactionIndex": "0x3",
          "logIndex": "0xe",
          "removed": false
        },
        {
          "address": "0xe19ce0acf70dbd7ff9cb80715f84ab0fd72b57ac",
          "topics": [
            "0xddf252ad1be2c89b69c2b068fc378daa952ba7f163c4a11628f55a4df523b3ef",
            "0x000000000000000000000000492d6c57e1a3d79f1d7d79e44dba6aa81a9f39ec",
            "0x00000000000000000000000056984cc217b0a72de3f641af387edd21164bbe78"
          ],
          "data": "0x000000000000000000000000000000000000000000000005f68e8131ecf80000",
          "blockHash": "0x284d1477f6241451a91b0b67999fa390071cb383167a6941cd0003ce1b53eff7",
          "blockNumber": "0x1d7cca",
          "blockTimestamp": "0x67f644dd",
          "transactionHash": "0x1457ada93f7c1aa5d808e00a37e726ea13e8836ece8ac3efe134d54fd04ad060",
          "transactionIndex": "0x3",
          "logIndex": "0xf",
          "removed": false
        },
        {
          "address": "0x56984cc217b0a72de3f641af387edd21164bbe78",
          "topics": [
            "0x8c9268469ff6265448f46f8119962e815f393b25b87bb55bda5e709a412b85d7"
          ],
          "data": "0x00000000000000000000000000000000000000000024bfdb1dd8b498b204f9d1",
          "blockHash": "0x284d1477f6241451a91b0b67999fa390071cb383167a6941cd0003ce1b53eff7",
          "blockNumber": "0x1d7cca",
          "blockTimestamp": "0x67f644dd",
          "transactionHash": "0x1457ada93f7c1aa5d808e00a37e726ea13e8836ece8ac3efe134d54fd04ad060",
          "transactionIndex": "0x3",
          "logIndex": "0x10",
          "removed": false
        },
        {
          "address": "0x56984cc217b0a72de3f641af387edd21164bbe78",
          "topics": [
            "0xc48943df4095f4f20d171fd2872eafdc0eed4d9014ac3672f3bde7fd425449d5",
            "0x000000000000000000000000492d6c57e1a3d79f1d7d79e44dba6aa81a9f39ec"
          ],
          "data": "0x00000000000000000000000000000000000000000000000000ad25a8b01b70620000000000000000000000000000000000000000000000000000000000000000",
          "blockHash": "0x284d1477f6241451a91b0b67999fa390071cb383167a6941cd0003ce1b53eff7",
          "blockNumber": "0x1d7cca",
          "blockTimestamp": "0x67f644dd",
          "transactionHash": "0x1457ada93f7c1aa5d808e00a37e726ea13e8836ece8ac3efe134d54fd04ad060",
          "transactionIndex": "0x3",
          "logIndex": "0x11",
          "removed": false
        },
        {
          "address": "0x56984cc217b0a72de3f641af387edd21164bbe78",
          "topics": [
            "0xbce78369dccab09eec1986f4d409ab09ffbb47d65423e5148fcf98411c5111c9",
            "0x000000000000000000000000492d6c57e1a3d79f1d7d79e44dba6aa81a9f39ec"
          ],
          "data": "0x00000000000000000000000000000000000000000000000681466edb09464ce4",
          "blockHash": "0x284d1477f6241451a91b0b67999fa390071cb383167a6941cd0003ce1b53eff7",
          "blockNumber": "0x1d7cca",
          "blockTimestamp": "0x67f644dd",
          "transactionHash": "0x1457ada93f7c1aa5d808e00a37e726ea13e8836ece8ac3efe134d54fd04ad060",
          "transactionIndex": "0x3",
          "logIndex": "0x12",
          "removed": false
        },
        {
          "address": "0x56984cc217b0a72de3f641af387edd21164bbe78",
          "topics": [
            "0xf20651f7c9cd4e1c112f77cbf2a13a44f79d4165dd781c41b52052bfc888174a",
            "0x000000000000000000000000492d6c57e1a3d79f1d7d79e44dba6aa81a9f39ec"
          ],
          "data": "0x000000000000000000000000000000000000000000000000000000000000006000000000000000000000000000000000000000000000000000000000000000a0000000000000000000000000000000000000000000000000000f355b6d99b31c0000000000000000000000000000000000000000000000000000000000000001000000000000000000000000321f90864fb21cdcddd0d67fe5e4cbc812ec9e6400000000000000000000000000000000000000000000000000000000000000010000000000000000000000000000000000000000000000000000000e157f6d22",
          "blockHash": "0x284d1477f6241451a91b0b67999fa390071cb383167a6941cd0003ce1b53eff7",
          "blockNumber": "0x1d7cca",
          "blockTimestamp": "0x67f644dd",
          "transactionHash": "0x1457ada93f7c1aa5d808e00a37e726ea13e8836ece8ac3efe134d54fd04ad060",
          "transactionIndex": "0x3",
          "logIndex": "0x13",
          "removed": false
        },
        {
          "address": "0x321f90864fb21cdcddd0d67fe5e4cbc812ec9e64",
          "topics": [
            "0xddf252ad1be2c89b69c2b068fc378daa952ba7f163c4a11628f55a4df523b3ef",
            "0x00000000000000000000000056984cc217b0a72de3f641af387edd21164bbe78",
            "0x000000000000000000000000492d6c57e1a3d79f1d7d79e44dba6aa81a9f39ec"
          ],
          "data": "0x0000000000000000000000000000000000000000000000000000000e157f6d22",
          "blockHash": "0x284d1477f6241451a91b0b67999fa390071cb383167a6941cd0003ce1b53eff7",
          "blockNumber": "0x1d7cca",
          "blockTimestamp": "0x67f644dd",
          "transactionHash": "0x1457ada93f7c1aa5d808e00a37e726ea13e8836ece8ac3efe134d54fd04ad060",
          "transactionIndex": "0x3",
          "logIndex": "0x14",
          "removed": false
        },
        {
          "address": "0xfb38b4aa28b98f9c010ff5a81660b2819b8acce1",
          "topics": [
            "0xddf252ad1be2c89b69c2b068fc378daa952ba7f163c4a11628f55a4df523b3ef",
            "0x0000000000000000000000000000000000000000000000000000000000000000",
            "0x000000000000000000000000fabcc4b22ffea25d01ac23c5d225d7b27cb1b6b8"
          ],
          "data": "0x0000000000000000000000000000000000000000000000000c9dba59845b56c6",
          "blockHash": "0x284d1477f6241451a91b0b67999fa390071cb383167a6941cd0003ce1b53eff7",
          "blockNumber": "0x1d7cca",
          "blockTimestamp": "0x67f644dd",
          "transactionHash": "0x1457ada93f7c1aa5d808e00a37e726ea13e8836ece8ac3efe134d54fd04ad060",
          "transactionIndex": "0x3",
          "logIndex": "0x15",
          "removed": false
        },
        {
          "address": "0xfb38b4aa28b98f9c010ff5a81660b2819b8acce1",
          "topics": [
            "0xf10dbf1172416c6a968924938bbc2aab7bd8062778b10a53684b1d02894145fd"
          ],
          "data": "0x000000000000000000000000000000000000000b0002a118573a2a3be1e03f280000000000000000000000000000000000000000000000000000000000000000",
          "blockHash": "0x284d1477f6241451a91b0b67999fa390071cb383167a6941cd0003ce1b53eff7",
          "blockNumber": "0x1d7cca",
          "blockTimestamp": "0x67f644dd",
          "transactionHash": "0x1457ada93f7c1aa5d808e00a37e726ea13e8836ece8ac3efe134d54fd04ad060",
          "transactionIndex": "0x3",
          "logIndex": "0x16",
          "removed": false
        },
        {
          "address": "0xfb38b4aa28b98f9c010ff5a81660b2819b8acce1",
          "topics": [
            "0xdcbc1c05240f31ff3ad067ef1ee35ce4997762752e3a095284754544f4c709d7",
            "0x000000000000000000000000fabcc4b22ffea25d01ac23c5d225d7b27cb1b6b8",
            "0x000000000000000000000000fabcc4b22ffea25d01ac23c5d225d7b27cb1b6b8"
          ],
          "data": "0x0000000000000000000000000000000000000000000000008ac7230489e800000000000000000000000000000000000000000000000000000c9dba59845b56c6",
          "blockHash": "0x284d1477f6241451a91b0b67999fa390071cb383167a6941cd0003ce1b53eff7",
          "blockNumber": "0x1d7cca",
          "blockTimestamp": "0x67f644dd",
          "transactionHash": "0x1457ada93f7c1aa5d808e00a37e726ea13e8836ece8ac3efe134d54fd04ad060",
          "transactionIndex": "0x3",
          "logIndex": "0x17",
          "removed": false
        }
      ],
      "logsBloom": "0x00010040020000000000000000000000000020000000002000000000000200000002000000000000000000000000000000000000000100000002000000200000020000400000000040020008000010000000200000000000000000a00000000000000000020000000000000000000800000002000004200004000010008004000000000000000200000004000400000000000000000020000000800048000000020000000000000000000000000100000010000000000000000010000000000000000002080000000800000000000000000000001008000000000000100020000010000000000000c00000000000008000000000000004000000000000000000",
      "type": "0x0",
      "transactionHash": "0x1457ada93f7c1aa5d808e00a37e726ea13e8836ece8ac3efe134d54fd04ad060",
      "transactionIndex": "0x3",
      "blockHash": "0x284d1477f6241451a91b0b67999fa390071cb383167a6941cd0003ce1b53eff7",
      "blockNumber": "0x1d7cca",
      "gasUsed": "0x43378",
      "effectiveGasPrice": "0xd5969",
      "from": "0xfabcc4b22ffea25d01ac23c5d225d7b27cb1b6b8",
      "to": "0xfb38b4aa28b98f9c010ff5a81660b2819b8acce1",
      "contractAddress": null
    }
  ],
  "libraries": [],
  "pending": [],
  "returns": {},
  "timestamp": 1744192742,
  "chain": 3636,
  "commit": null
}