{
  "transactions": [
    {
      "hash": "0xe96e4f1f35df87b0fba36f1cf7da71b2e645473def137203f291de33898f1341",
      "transactionType": "CALL",
      "contractName": null,
      "contractAddress": "0xe19ce0acf70dbd7ff9cb80715f84ab0fd72b57ac",
      "function": "approve(address,uint256)",
      "arguments": [
        "0xb136071AA97891ccbf919ae4e57AFF7B833e1074",
        "10000000000000000000000"
      ],
      "transaction": {
        "from": "0xfabcc4b22ffea25d01ac23c5d225d7b27cb1b6b8",
        "to": "0xe19ce0acf70dbd7ff9cb80715f84ab0fd72b57ac",
        "gas": "0x9db4",
        "value": "0x0",
        "input": "0x095ea7b3000000000000000000000000b136071aa97891ccbf919ae4e57aff7b833e107400000000000000000000000000000000000000000000021e19e0c9bab2400000",
        "nonce": "0x657",
        "chainId": "0xe34"
      },
      "additionalContracts": [],
      "isFixedGasLimit": false
    },
    {
      "hash": "0xdea745ab2fa431a3396f6209dc76175f81c5612ce5e8a390322678df76395815",
      "transactionType": "CALL",
      "contractName": null,
      "contractAddress": "0xb136071aa97891ccbf919ae4e57aff7b833e1074",
      "function": "deposit(uint256,address)",
      "arguments": [
        "10000000000000000000",
        "0xFaBcc4b22fFEa25D01AC23c5d225D7B27CB1B6B8"
      ],
      "transaction": {
        "from": "0xfabcc4b22ffea25d01ac23c5d225d7b27cb1b6b8",
        "to": "0xb136071aa97891ccbf919ae4e57aff7b833e1074",
        "gas": "0x5cd7d",
        "value": "0x0",
        "input": "0x6e553f650000000000000000000000000000000000000000000000008ac7230489e80000000000000000000000000000fabcc4b22ffea25d01ac23c5d225d7b27cb1b6b8",
        "nonce": "0x658",
        "chainId": "0xe34"
      },
      "additionalContracts": [],
      "isFixedGasLimit": false
    }
  ],
  "receipts": [
    {
      "status": "0x1",
      "cumulativeGasUsed": "0x31b67",
      "logs": [
        {
          "address": "0xe19ce0acf70dbd7ff9cb80715f84ab0fd72b57ac",
          "topics": [
            "0x8c5be1e5ebec7d5bd14f71427d1e84f3dd0314c0f7b2291e5b200ac8c7c3b925",
            "0x000000000000000000000000fabcc4b22ffea25d01ac23c5d225d7b27cb1b6b8",
            "0x000000000000000000000000b136071aa97891ccbf919ae4e57aff7b833e1074"
          ],
          "data": "0x00000000000000000000000000000000000000000000021e19e0c9bab2400000",
          "blockHash": "0xa0424ea770096cb74f054414ce23239dea59b5b3f1aecfdb3f354ae59eedc71e",
          "blockNumber": "0x0",
          "blockTimestamp": "0x67f64118",
          "transactionHash": "0xe96e4f1f35df87b0fba36f1cf7da71b2e645473def137203f291de33898f1341",
          "transactionIndex": "0x2",
          "logIndex": "0x6",
          "removed": false
        }
      ],
      "logsBloom": "0x00000000020000000000000000000000000000000000000000000000000000000000000000000000000000000000000000000000000100000000000000200000000000000000000040000000000000000000200000000000000000000000000000000040000000000000000000000000000002000000000000000000000000000000000000000000000000000000000000000000000000000000000000000000020000000000000000000000000000000000000000000000000001000000000000000000000000000000000000000000000000000000000000000000000000000010000000000000000000000000000800000000000004000000000000000000",
      "type": "0x0",
      "transactionHash": "0xe96e4f1f35df87b0fba36f1cf7da71b2e645473def137203f291de33898f1341",
      "transactionIndex": "0x2",
      "blockHash": "0xa0424ea770096cb74f054414ce23239dea59b5b3f1aecfdb3f354ae59eedc71e",
      "blockNumber": "0x0",
      "gasUsed": "0x722e",
      "effectiveGasPrice": "0xd5923",
      "from": "0xfabcc4b22ffea25d01ac23c5d225d7b27cb1b6b8",
      "to": "0xe19ce0acf70dbd7ff9cb80715f84ab0fd72b57ac",
      "contractAddress": null
    },
    {
      "status": "0x1",
      "cumulativeGasUsed": "0xda2a4",
      "logs": [
        {
          "address": "0xe19ce0acf70dbd7ff9cb80715f84ab0fd72b57ac",
          "topics": [
            "0x8c5be1e5ebec7d5bd14f71427d1e84f3dd0314c0f7b2291e5b200ac8c7c3b925",
            "0x000000000000000000000000fabcc4b22ffea25d01ac23c5d225d7b27cb1b6b8",
            "0x000000000000000000000000b136071aa97891ccbf919ae4e57aff7b833e1074"
          ],
          "data": "0x00000000000000000000000000000000000000000000021d8f19a6b628580000",
          "blockHash": "0xba4a98a4150e16cb6494826ddf6ea51f57224a426eb38036a08e03defe6a1b56",
          "blockNumber": "0x1d7c34",
          "blockTimestamp": "0x67f6411e",
          "transactionHash": "0xdea745ab2fa431a3396f6209dc76175f81c5612ce5e8a390322678df76395815",
          "transactionIndex": "0x5",
          "logIndex": "0x14",
          "removed": false
        },
        {
          "address": "0xe19ce0acf70dbd7ff9cb80715f84ab0fd72b57ac",
          "topics": [
            "0xddf252ad1be2c89b69c2b068fc378daa952ba7f163c4a11628f55a4df523b3ef",
            "0x000000000000000000000000fabcc4b22ffea25d01ac23c5d225d7b27cb1b6b8",
            "0x000000000000000000000000b136071aa97891ccbf919ae4e57aff7b833e1074"
          ],
          "data": "0x0000000000000000000000000000000000000000000000008ac7230489e80000",
          "blockHash": "0xba4a98a4150e16cb6494826ddf6ea51f57224a426eb38036a08e03defe6a1b56",
          "blockNumber": "0x1d7c34",
          "blockTimestamp": "0x67f6411e",
          "transactionHash": "0xdea745ab2fa431a3396f6209dc76175f81c5612ce5e8a390322678df76395815",
          "transactionIndex": "0x5",
          "logIndex": "0x15",
          "removed": false
        },
        {
          "address": "0xe19ce0acf70dbd7ff9cb80715f84ab0fd72b57ac",
          "topics": [
            "0xddf252ad1be2c89b69c2b068fc378daa952ba7f163c4a11628f55a4df523b3ef",
            "0x000000000000000000000000b136071aa97891ccbf919ae4e57aff7b833e1074",
            "0x000000000000000000000000d073606975186348f77e933dbef483ff73871ab9"
          ],
          "data": "0x0000000000000000000000000000000000000000000000008ac7230489e80000",
          "blockHash": "0xba4a98a4150e16cb6494826ddf6ea51f57224a426eb38036a08e03defe6a1b56",
          "blockNumber": "0x1d7c34",
          "blockTimestamp": "0x67f6411e",
          "transactionHash": "0xdea745ab2fa431a3396f6209dc76175f81c5612ce5e8a390322678df76395815",
          "transactionIndex": "0x5",
          "logIndex": "0x16",
          "removed": false
        },
        {
          "address": "0xe19ce0acf70dbd7ff9cb80715f84ab0fd72b57ac",
          "topics": [
            "0xddf252ad1be2c89b69c2b068fc378daa952ba7f163c4a11628f55a4df523b3ef",
            "0x000000000000000000000000d073606975186348f77e933dbef483ff73871ab9",
            "0x00000000000000000000000056984cc217b0a72de3f641af387edd21164bbe78"
          ],
          "data": "0x000000000000000000000000000000000000000000000005f68e8131ecf80000",
          "blockHash": "0xba4a98a4150e16cb6494826ddf6ea51f57224a426eb38036a08e03defe6a1b56",
          "blockNumber": "0x1d7c34",
          "blockTimestamp": "0x67f6411e",
          "transactionHash": "0xdea745ab2fa431a3396f6209dc76175f81c5612ce5e8a390322678df76395815",
          "transactionIndex": "0x5",
          "logIndex": "0x17",
          "removed": false
        },
        {
          "address": "0x56984cc217b0a72de3f641af387edd21164bbe78",
          "topics": [
            "0x8c9268469ff6265448f46f8119962e815f393b25b87bb55bda5e709a412b85d7"
          ],
          "data": "0x00000000000000000000000000000000000000000024bd1644bb13b9698f14ba",
          "blockHash": "0xba4a98a4150e16cb6494826ddf6ea51f57224a426eb38036a08e03defe6a1b56",
          "blockNumber": "0x1d7c34",
          "blockTimestamp": "0x67f6411e",
          "transactionHash": "0xdea745ab2fa431a3396f6209dc76175f81c5612ce5e8a390322678df76395815",
          "transactionIndex": "0x5",
          "logIndex": "0x18",
          "removed": false
        },
        {
          "address": "0x56984cc217b0a72de3f641af387edd21164bbe78",
          "topics": [
            "0xc48943df4095f4f20d171fd2872eafdc0eed4d9014ac3672f3bde7fd425449d5",
            "0x000000000000000000000000d073606975186348f77e933dbef483ff73871ab9"
          ],
          "data": "0x00000000000000000000000000000000000000000000000000ad38a45711f5f10000000000000000000000000000000000000000000000000000000000000000",
          "blockHash": "0xba4a98a4150e16cb6494826ddf6ea51f57224a426eb38036a08e03defe6a1b56",
          "blockNumber": "0x1d7c34",
          "blockTimestamp": "0x67f6411e",
          "transactionHash": "0xdea745ab2fa431a3396f6209dc76175f81c5612ce5e8a390322678df76395815",
          "transactionIndex": "0x5",
          "logIndex": "0x19",
          "removed": false
        },
        {
          "address": "0x56984cc217b0a72de3f641af387edd21164bbe78",
          "topics": [
            "0xbce78369dccab09eec1986f4d409ab09ffbb47d65423e5148fcf98411c5111c9",
            "0x000000000000000000000000d073606975186348f77e933dbef483ff73871ab9"
          ],
          "data": "0x0000000000000000000000000000000000000000000000068151159e91be93af",
          "blockHash": "0xba4a98a4150e16cb6494826ddf6ea51f57224a426eb38036a08e03defe6a1b56",
          "blockNumber": "0x1d7c34",
          "blockTimestamp": "0x67f6411e",
          "transactionHash": "0xdea745ab2fa431a3396f6209dc76175f81c5612ce5e8a390322678df76395815",
          "transactionIndex": "0x5",
          "logIndex": "0x1a",
          "removed": false
        },
        {
          "address": "0x56984cc217b0a72de3f641af387edd21164bbe78",
          "topics": [
            "0xf20651f7c9cd4e1c112f77cbf2a13a44f79d4165dd781c41b52052bfc888174a",
            "0x000000000000000000000000d073606975186348f77e933dbef483ff73871ab9"
          ],
          "data": "0x000000000000000000000000000000000000000000000000000000000000006000000000000000000000000000000000000000000000000000000000000000a000000000000000000000000000000000000000000000000000048e97e5216c510000000000000000000000000000000000000000000000000000000000000001000000000000000000000000321f90864fb21cdcddd0d67fe5e4cbc812ec9e640000000000000000000000000000000000000000000000000000000000000001000000000000000000000000000000000000000000000000000000043846ff32",
          "blockHash": "0xba4a98a4150e16cb6494826ddf6ea51f57224a426eb38036a08e03defe6a1b56",
          "blockNumber": "0x1d7c34",
          "blockTimestamp": "0x67f6411e",
          "transactionHash": "0xdea745ab2fa431a3396f6209dc76175f81c5612ce5e8a390322678df76395815",
          "transactionIndex": "0x5",
          "logIndex": "0x1b",
          "removed": false
        },
        {
          "address": "0x321f90864fb21cdcddd0d67fe5e4cbc812ec9e64",
          "topics": [
            "0xddf252ad1be2c89b69c2b068fc378daa952ba7f163c4a11628f55a4df523b3ef",
            "0x00000000000000000000000056984cc217b0a72de3f641af387edd21164bbe78",
            "0x000000000000000000000000d073606975186348f77e933dbef483ff73871ab9"
          ],
          "data": "0x000000000000000000000000000000000000000000000000000000043846ff32",
          "blockHash": "0xba4a98a4150e16cb6494826ddf6ea51f57224a426eb38036a08e03defe6a1b56",
          "blockNumber": "0x1d7c34",
          "blockTimestamp": "0x67f6411e",
          "transactionHash": "0xdea745ab2fa431a3396f6209dc76175f81c5612ce5e8a390322678df76395815",
          "transactionIndex": "0x5",
          "logIndex": "0x1c",
          "removed": false
        },
        {
          "address": "0xb136071aa97891ccbf919ae4e57aff7b833e1074",
          "topics": [
            "0xddf252ad1be2c89b69c2b068fc378daa952ba7f163c4a11628f55a4df523b3ef",
            "0x0000000000000000000000000000000000000000000000000000000000000000",
            "0x000000000000000000000000fabcc4b22ffea25d01ac23c5d225d7b27cb1b6b8"
          ],
          "data": "0x0000000000000000000000000000000000000000000000000c9dbc7658132a0c",
          "blockHash": "0xba4a98a4150e16cb6494826ddf6ea51f57224a426eb38036a08e03defe6a1b56",
          "blockNumber": "0x1d7c34",
          "blockTimestamp": "0x67f6411e",
          "transactionHash": "0xdea745ab2fa431a3396f6209dc76175f81c5612ce5e8a390322678df76395815",
          "transactionIndex": "0x5",
          "logIndex": "0x1d",
          "removed": false
        },
        {
          "address": "0xb136071aa97891ccbf919ae4e57aff7b833e1074",
          "topics": [
            "0xf10dbf1172416c6a968924938bbc2aab7bd8062778b10a53684b1d02894145fd"
          ],
          "data": "0x000000000000000000000000000000000000000b0000c98c258219d6968537420000000000000000000000000000000000000000000000000000000000000000",
          "blockHash": "0xba4a98a4150e16cb6494826ddf6ea51f57224a426eb38036a08e03defe6a1b56",
          "blockNumber": "0x1d7c34",
          "blockTimestamp": "0x67f6411e",
          "transactionHash": "0xdea745ab2fa431a3396f6209dc76175f81c5612ce5e8a390322678df76395815",
          "transactionIndex": "0x5",
          "logIndex": "0x1e",
          "removed": false
        },
        {
          "address": "0xb136071aa97891ccbf919ae4e57aff7b833e1074",
          "topics": [
            "0xdcbc1c05240f31ff3ad067ef1ee35ce4997762752e3a095284754544f4c709d7",
            "0x000000000000000000000000fabcc4b22ffea25d01ac23c5d225d7b27cb1b6b8",
            "0x000000000000000000000000fabcc4b22ffea25d01ac23c5d225d7b27cb1b6b8"
          ],
          "data": "0x0000000000000000000000000000000000000000000000008ac7230489e800000000000000000000000000000000000000000000000000000c9dbc7658132a0c",
          "blockHash": "0xba4a98a4150e16cb6494826ddf6ea51f57224a426eb38036a08e03defe6a1b56",
          "blockNumber": "0x1d7c34",
          "blockTimestamp": "0x67f6411e",
          "transactionHash": "0xdea745ab2fa431a3396f6209dc76175f81c5612ce5e8a390322678df76395815",
          "transactionIndex": "0x5",
          "logIndex": "0x1f",
          "removed": false
        }
      ],
      "logsBloom": "0x00010000020000000000000000000000000000000000002000000000000200000002000000000000000000000000000000000000000100000002000000200000000004400000000040020008000010000000200000000000000000a00000000000000040020000000000000040000800000002000004200004000010008004000000000000000200000004000400000000000000000020000000800040000000020000000000000000000001000100000010000000000000000011000000000000000002000000000800008000000000000000001008000000000000000020000010000000000000000000000002000800000000000004000020000000000000",
      "type": "0x0",
      "transactionHash": "0xdea745ab2fa431a3396f6209dc76175f81c5612ce5e8a390322678df76395815",
      "transactionIndex": "0x5",
      "blockHash": "0xba4a98a4150e16cb6494826ddf6ea51f57224a426eb38036a08e03defe6a1b56",
      "blockNumber": "0x1d7c34",
      "gasUsed": "0x43378",
      "effectiveGasPrice": "0xd5923",
      "from": "0xfabcc4b22ffea25d01ac23c5d225d7b27cb1b6b8",
      "to": "0xb136071aa97891ccbf919ae4e57aff7b833e1074",
      "contractAddress": null
    }
  ],
  "libraries": [],
  "pending": [],
  "returns": {},
  "timestamp": 1744191782,
  "chain": 3636,
  "commit": null
}