{
  "transactions": [
    {
      "hash": "0x77fafd6ab000e1b5379398153b9327fcc69e7c1759e4981ee5987ed61b3d3a94",
      "transactionType": "CALL",
      "contractName": null,
      "contractAddress": "0xe19ce0acf70dbd7ff9cb80715f84ab0fd72b57ac",
      "function": "approve(address,uint256)",
      "arguments": [
        "0xFb38B4aa28b98f9C010ff5A81660b2819B8acCE1",
        "10000000000000000000000"
      ],
      "transaction": {
        "from": "0xfabcc4b22ffea25d01ac23c5d225d7b27cb1b6b8",
        "to": "0xe19ce0acf70dbd7ff9cb80715f84ab0fd72b57ac",
        "gas": "0x108ad",
        "value": "0x0",
        "input": "0x095ea7b3000000000000000000000000fb38b4aa28b98f9c010ff5a81660b2819b8acce100000000000000000000000000000000000000000000021e19e0c9bab2400000",
        "nonce": "0x662",
        "chainId": "0xe34"
      },
      "additionalContracts": [],
      "isFixedGasLimit": false
    },
    {
      "hash": "0x9209eb101ff5d9fed1a7cbe2eff8697793a485f2eb5a1ab4f5d0e9791473d885",
      "transactionType": "CALL",
      "contractName": null,
      "contractAddress": "0xfb38b4aa28b98f9c010ff5a81660b2819b8acce1",
      "function": "deposit(uint256,address)",
      "arguments": [
        "10000000000000000000",
        "0xFaBcc4b22fFEa25D01AC23c5d225D7B27CB1B6B8"
      ],
      "transaction": {
        "from": "0xfabcc4b22ffea25d01ac23c5d225d7b27cb1b6b8",
        "to": "0xfb38b4aa28b98f9c010ff5a81660b2819b8acce1",
        "gas": "0x6911b",
        "value": "0x0",
        "input": "0x6e553f650000000000000000000000000000000000000000000000008ac7230489e80000000000000000000000000000fabcc4b22ffea25d01ac23c5d225d7b27cb1b6b8",
        "nonce": "0x663",
        "chainId": "0xe34"
      },
      "additionalContracts": [],
      "isFixedGasLimit": false
    }
  ],
  "receipts": [
    {
      "status": "0x1",
      "cumulativeGasUsed": "0xb14d1",
      "logs": [
        {
          "address": "0xe19ce0acf70dbd7ff9cb80715f84ab0fd72b57ac",
          "topics": [
            "0x8c5be1e5ebec7d5bd14f71427d1e84f3dd0314c0f7b2291e5b200ac8c7c3b925",
            "0x000000000000000000000000fabcc4b22ffea25d01ac23c5d225d7b27cb1b6b8",
            "0x000000000000000000000000fb38b4aa28b98f9c010ff5a81660b2819b8acce1"
          ],
          "data": "0x00000000000000000000000000000000000000000000021d8f19a6b628580000",
          "blockHash": "0xeba3233cb81171a52602ea5240379b6d2abc0db3aad77ba693625f262d021cb6",
          "blockNumber": "0x0",
          "blockTimestamp": "0x67f64362",
          "transactionHash": "0x9209eb101ff5d9fed1a7cbe2eff8697793a485f2eb5a1ab4f5d0e9791473d885",
          "transactionIndex": "0x3",
          "logIndex": "0xf",
          "removed": false
        },
        {
          "address": "0xe19ce0acf70dbd7ff9cb80715f84ab0fd72b57ac",
          "topics": [
            "0xddf252ad1be2c89b69c2b068fc378daa952ba7f163c4a11628f55a4df523b3ef",
            "0x000000000000000000000000fabcc4b22ffea25d01ac23c5d225d7b27cb1b6b8",
            "0x000000000000000000000000fb38b4aa28b98f9c010ff5a81660b2819b8acce1"
          ],
          "data": "0x0000000000000000000000000000000000000000000000008ac7230489e80000",
          "blockHash": "0xeba3233cb81171a52602ea5240379b6d2abc0db3aad77ba693625f262d021cb6",
          "blockNumber": "0x0",
          "blockTimestamp": "0x67f64362",
          "transactionHash": "0x9209eb101ff5d9fed1a7cbe2eff8697793a485f2eb5a1ab4f5d0e9791473d885",
          "transactionIndex": "0x3",
          "logIndex": "0x10",
          "removed": false
        },
        {
          "address": "0xe19ce0acf70dbd7ff9cb80715f84ab0fd72b57ac",
          "topics": [
            "0xddf252ad1be2c89b69c2b068fc378daa952ba7f163c4a11628f55a4df523b3ef",
            "0x000000000000000000000000fb38b4aa28b98f9c010ff5a81660b2819b8acce1",
            "0x000000000000000000000000492d6c57e1a3d79f1d7d79e44dba6aa81a9f39ec"
          ],
          "data": "0x0000000000000000000000000000000000000000000000008ac7230489e80000",
          "blockHash": "0xeba3233cb81171a52602ea5240379b6d2abc0db3aad77ba693625f262d021cb6",
          "blockNumber": "0x0",
          "blockTimestamp": "0x67f64362",
          "transactionHash": "0x9209eb101ff5d9fed1a7cbe2eff8697793a485f2eb5a1ab4f5d0e9791473d885",
          "transactionIndex": "0x3",
          "logIndex": "0x11",
          "removed": false
        },
        {
          "address": "0xe19ce0acf70dbd7ff9cb80715f84ab0fd72b57ac",
          "topics": [
            "0xddf252ad1be2c89b69c2b068fc378daa952ba7f163c4a11628f55a4df523b3ef",
            "0x000000000000000000000000492d6c57e1a3d79f1d7d79e44dba6aa81a9f39ec",
            "0x00000000000000000000000056984cc217b0a72de3f641af387edd21164bbe78"
          ],
          "data": "0x0000000000000000000000000000000000000000000000008ac7230489e80000",
          "blockHash": "0xeba3233cb81171a52602ea5240379b6d2abc0db3aad77ba693625f262d021cb6",
          "blockNumber": "0x0",
          "blockTimestamp": "0x67f64362",
          "transactionHash": "0x9209eb101ff5d9fed1a7cbe2eff8697793a485f2eb5a1ab4f5d0e9791473d885",
          "transactionIndex": "0x3",
          "logIndex": "0x12",
          "removed": false
        },
        {
          "address": "0x56984cc217b0a72de3f641af387edd21164bbe78",
          "topics": [
            "0x8c9268469ff6265448f46f8119962e815f393b25b87bb55bda5e709a412b85d7"
          ],
          "data": "0x00000000000000000000000000000000000000000024c58e3391463d1045086d",
          "blockHash": "0xeba3233cb81171a52602ea5240379b6d2abc0db3aad77ba693625f262d021cb6",
          "blockNumber": "0x0",
          "blockTimestamp": "0x67f64362",
          "transactionHash": "0x9209eb101ff5d9fed1a7cbe2eff8697793a485f2eb5a1ab4f5d0e9791473d885",
          "transactionIndex": "0x3",
          "logIndex": "0x13",
          "removed": false
        },
        {
          "address": "0x56984cc217b0a72de3f641af387edd21164bbe78",
          "topics": [
            "0xc48943df4095f4f20d171fd2872eafdc0eed4d9014ac3672f3bde7fd425449d5",
            "0x000000000000000000000000492d6c57e1a3d79f1d7d79e44dba6aa81a9f39ec"
          ],
          "data": "0x00000000000000000000000000000000000000000000000000ad38a45711f5f10000000000000000000000000000000000000000000000000000000000000000",
          "blockHash": "0xeba3233cb81171a52602ea5240379b6d2abc0db3aad77ba693625f262d021cb6",
          "blockNumber": "0x0",
          "blockTimestamp": "0x67f64362",
          "transactionHash": "0x9209eb101ff5d9fed1a7cbe2eff8697793a485f2eb5a1ab4f5d0e9791473d885",
          "transactionIndex": "0x3",
          "logIndex": "0x14",
          "removed": false
        },
        {
          "address": "0x56984cc217b0a72de3f641af387edd21164bbe78",
          "topics": [
            "0xbce78369dccab09eec1986f4d409ab09ffbb47d65423e5148fcf98411c5111c9",
            "0x000000000000000000000000492d6c57e1a3d79f1d7d79e44dba6aa81a9f39ec"
          ],
          "data": "0x0000000000000000000000000000000000000000000000008ac7230489e80000",
          "blockHash": "0xeba3233cb81171a52602ea5240379b6d2abc0db3aad77ba693625f262d021cb6",
          "blockNumber": "0x0",
          "blockTimestamp": "0x67f64362",
          "transactionHash": "0x9209eb101ff5d9fed1a7cbe2eff8697793a485f2eb5a1ab4f5d0e9791473d885",
          "transactionIndex": "0x3",
          "logIndex": "0x15",
          "removed": false
        },
        {
          "address": "0x56984cc217b0a72de3f641af387edd21164bbe78",
          "topics": [
            "0xf20651f7c9cd4e1c112f77cbf2a13a44f79d4165dd781c41b52052bfc888174a",
            "0x000000000000000000000000492d6c57e1a3d79f1d7d79e44dba6aa81a9f39ec"
          ],
          "data": "0x00000000000000000000000000000000000000000000000000000000000000600000000000000000000000000000000000000000000000000000000000000080000000000000000000000000000000000000000000000000000000000000000000000000000000000000000000000000000000000000000000000000000000000000000000000000000000000000000000000000000000000000000000000000",
          "blockHash": "0xeba3233cb81171a52602ea5240379b6d2abc0db3aad77ba693625f262d021cb6",
          "blockNumber": "0x0",
          "blockTimestamp": "0x67f64362",
          "transactionHash": "0x9209eb101ff5d9fed1a7cbe2eff8697793a485f2eb5a1ab4f5d0e9791473d885",
          "transactionIndex": "0x3",
          "logIndex": "0x16",
          "removed": false
        },
        {
          "address": "0xfb38b4aa28b98f9c010ff5a81660b2819b8acce1",
          "topics": [
            "0xddf252ad1be2c89b69c2b068fc378daa952ba7f163c4a11628f55a4df523b3ef",
            "0x0000000000000000000000000000000000000000000000000000000000000000",
            "0x000000000000000000000000fabcc4b22ffea25d01ac23c5d225d7b27cb1b6b8"
          ],
          "data": "0x0000000000000000000000000000000000000000000000008ac7230489e80000",
          "blockHash": "0xeba3233cb81171a52602ea5240379b6d2abc0db3aad77ba693625f262d021cb6",
          "blockNumber": "0x0",
          "blockTimestamp": "0x67f64362",
          "transactionHash": "0x9209eb101ff5d9fed1a7cbe2eff8697793a485f2eb5a1ab4f5d0e9791473d885",
          "transactionIndex": "0x3",
          "logIndex": "0x17",
          "removed": false
        },
        {
          "address": "0xfb38b4aa28b98f9c010ff5a81660b2819b8acce1",
          "topics": [
            "0xf10dbf1172416c6a968924938bbc2aab7bd8062778b10a53684b1d02894145fd"
          ],
          "data": "0x00000000000000000000000000000000000000010000000000000000000000000000000000000000000000000000000000000000000000000000000000000000",
          "blockHash": "0xeba3233cb81171a52602ea5240379b6d2abc0db3aad77ba693625f262d021cb6",
          "blockNumber": "0x0",
          "blockTimestamp": "0x67f64362",
          "transactionHash": "0x9209eb101ff5d9fed1a7cbe2eff8697793a485f2eb5a1ab4f5d0e9791473d885",
          "transactionIndex": "0x3",
          "logIndex": "0x18",
          "removed": false
        },
        {
          "address": "0xfb38b4aa28b98f9c010ff5a81660b2819b8acce1",
          "topics": [
            "0xdcbc1c05240f31ff3ad067ef1ee35ce4997762752e3a095284754544f4c709d7",
            "0x000000000000000000000000fabcc4b22ffea25d01ac23c5d225d7b27cb1b6b8",
            "0x000000000000000000000000fabcc4b22ffea25d01ac23c5d225d7b27cb1b6b8"
          ],
          "data": "0x0000000000000000000000000000000000000000000000008ac7230489e800000000000000000000000000000000000000000000000000008ac7230489e80000",
          "blockHash": "0xeba3233cb81171a52602ea5240379b6d2abc0db3aad77ba693625f262d021cb6",
          "blockNumber": "0x0",
          "blockTimestamp": "0x67f64362",
          "transactionHash": "0x9209eb101ff5d9fed1a7cbe2eff8697793a485f2eb5a1ab4f5d0e9791473d885",
          "transactionIndex": "0x3",
          "logIndex": "0x19",
          "removed": false
        }
      ],
      "logsBloom": "0x00010040020000000000000000000000000020000000002000000000000200000002000000000000000000000000000000000000000100000002000000200000020000400000000040020008000010000000200000000000000000200000000000000000020000000000000000000800000002000004200004000010008004000000000000000200000004000400000000000000000020000000000048000000020000000000000000000000000100000000000000000000000010000000000000000002080000000800000000000000000000001008000000000000100020000010000000000000c00000000000008000000000000004000000000000000000",
      "type": "0x0",
      "transactionHash": "0x9209eb101ff5d9fed1a7cbe2eff8697793a485f2eb5a1ab4f5d0e9791473d885",
      "transactionIndex": "0x3",
      "blockHash": "0xeba3233cb81171a52602ea5240379b6d2abc0db3aad77ba693625f262d021cb6",
      "blockNumber": "0x0",
      "gasUsed": "0x4c118",
      "effectiveGasPrice": "0xd594d",
      "from": "0xfabcc4b22ffea25d01ac23c5d225d7b27cb1b6b8",
      "to": "0xfb38b4aa28b98f9c010ff5a81660b2819b8acce1",
      "contractAddress": null
    },
    {
      "status": "0x1",
      "cumulativeGasUsed": "0x9b2cf",
      "logs": [
        {
          "address": "0xe19ce0acf70dbd7ff9cb80715f84ab0fd72b57ac",
          "topics": [
            "0x8c5be1e5ebec7d5bd14f71427d1e84f3dd0314c0f7b2291e5b200ac8c7c3b925",
            "0x000000000000000000000000fabcc4b22ffea25d01ac23c5d225d7b27cb1b6b8",
            "0x000000000000000000000000fb38b4aa28b98f9c010ff5a81660b2819b8acce1"
          ],
          "data": "0x00000000000000000000000000000000000000000000021e19e0c9bab2400000",
          "blockHash": "0x172514fce2976285f84c18ceca2167f25ff3cdcf1e49122abbec79a4364b3bb6",
          "blockNumber": "0x0",
          "blockTimestamp": "0x67f64355",
          "transactionHash": "0x77fafd6ab000e1b5379398153b9327fcc69e7c1759e4981ee5987ed61b3d3a94",
          "transactionIndex": "0x4",
          "logIndex": "0x19",
          "removed": false
        }
      ],
      "logsBloom": "0x00000040020000000000000000000000000020000000000000000000000000000000000000000000000000000000000000000000000100000000000000200000000000000000000040000000000000000000200000000000000000000000000000000000000000000000000000000000000002000000000000000000000000000000000000000000000000000000000000000000000000000000000000000000020000000000000000000000000000000000000000000000000000000000000000000000000000000000000000000000000000000000000000000000100000000010000000000000000000000000000000000000000004000000000000000000",
      "type": "0x0",
      "transactionHash": "0x77fafd6ab000e1b5379398153b9327fcc69e7c1759e4981ee5987ed61b3d3a94",
      "transactionIndex": "0x4",
      "blockHash": "0x172514fce2976285f84c18ceca2167f25ff3cdcf1e49122abbec79a4364b3bb6",
      "blockNumber": "0x0",
      "gasUsed": "0xb4fa",
      "effectiveGasPrice": "0xd594d",
      "from": "0xfabcc4b22ffea25d01ac23c5d225d7b27cb1b6b8",
      "to": "0xe19ce0acf70dbd7ff9cb80715f84ab0fd72b57ac",
      "contractAddress": null
    }
  ],
  "libraries": [],
  "pending": [],
  "returns": {},
  "timestamp": 1744192356,
  "chain": 3636,
  "commit": null
}